{
  "_format": "hh-sol-artifact-1",
  "contractName": "FlamingPhenixClubNFT",
  "sourceName": "contracts/FlamingPhenixClubNFT.sol",
  "abi": [
    {
      "inputs": [
        {
          "internalType": "string",
          "name": "_nftBaseURI",
          "type": "string"
        },
        {
          "internalType": "uint256",
          "name": "_initialTeamReserve",
          "type": "uint256"
        }
      ],
      "stateMutability": "nonpayable",
      "type": "constructor"
    },
    {
      "anonymous": false,
      "inputs": [
        {
          "indexed": true,
          "internalType": "address",
          "name": "owner",
          "type": "address"
        },
        {
          "indexed": true,
          "internalType": "address",
          "name": "approved",
          "type": "address"
        },
        {
          "indexed": true,
          "internalType": "uint256",
          "name": "tokenId",
          "type": "uint256"
        }
      ],
      "name": "Approval",
      "type": "event"
    },
    {
      "anonymous": false,
      "inputs": [
        {
          "indexed": true,
          "internalType": "address",
          "name": "owner",
          "type": "address"
        },
        {
          "indexed": true,
          "internalType": "address",
          "name": "operator",
          "type": "address"
        },
        {
          "indexed": false,
          "internalType": "bool",
          "name": "approved",
          "type": "bool"
        }
      ],
      "name": "ApprovalForAll",
      "type": "event"
    },
    {
      "anonymous": false,
      "inputs": [
        {
          "indexed": true,
          "internalType": "address",
          "name": "previousOwner",
          "type": "address"
        },
        {
          "indexed": true,
          "internalType": "address",
          "name": "newOwner",
          "type": "address"
        }
      ],
      "name": "OwnershipTransferred",
      "type": "event"
    },
    {
      "anonymous": false,
      "inputs": [
        {
          "indexed": true,
          "internalType": "address",
          "name": "from",
          "type": "address"
        },
        {
          "indexed": true,
          "internalType": "address",
          "name": "to",
          "type": "address"
        },
        {
          "indexed": true,
          "internalType": "uint256",
          "name": "tokenId",
          "type": "uint256"
        }
      ],
      "name": "Transfer",
      "type": "event"
    },
    {
      "inputs": [
        {
          "internalType": "address[]",
          "name": "_addresses",
          "type": "address[]"
        }
      ],
      "name": "addWhitelist",
      "outputs": [],
      "stateMutability": "nonpayable",
      "type": "function"
    },
    {
      "inputs": [
        {
          "internalType": "address",
          "name": "to",
          "type": "address"
        },
        {
          "internalType": "uint256",
          "name": "tokenId",
          "type": "uint256"
        }
      ],
      "name": "approve",
      "outputs": [],
      "stateMutability": "nonpayable",
      "type": "function"
    },
    {
      "inputs": [
        {
          "internalType": "address",
          "name": "owner",
          "type": "address"
        }
      ],
      "name": "balanceOf",
      "outputs": [
        {
          "internalType": "uint256",
          "name": "",
          "type": "uint256"
        }
      ],
      "stateMutability": "view",
      "type": "function"
    },
    {
      "inputs": [
        {
          "internalType": "address",
          "name": "_minter",
          "type": "address"
        }
      ],
      "name": "canMint",
      "outputs": [
        {
          "internalType": "uint256",
          "name": "",
          "type": "uint256"
        }
      ],
      "stateMutability": "view",
      "type": "function"
    },
    {
      "inputs": [],
      "name": "canMintWithERC20",
      "outputs": [
        {
          "internalType": "bool",
          "name": "",
          "type": "bool"
        }
      ],
      "stateMutability": "view",
      "type": "function"
    },
    {
      "inputs": [
        {
          "internalType": "uint256",
          "name": "tokenId",
          "type": "uint256"
        }
      ],
      "name": "getApproved",
      "outputs": [
        {
          "internalType": "address",
          "name": "",
          "type": "address"
        }
      ],
      "stateMutability": "view",
      "type": "function"
    },
    {
      "inputs": [],
      "name": "getInfo",
      "outputs": [
        {
          "components": [
            {
              "internalType": "uint256",
              "name": "regularCost",
              "type": "uint256"
            },
            {
              "internalType": "uint256",
              "name": "memberCost",
              "type": "uint256"
            },
            {
              "internalType": "uint256",
              "name": "whitelistCost",
              "type": "uint256"
            },
            {
              "internalType": "uint256",
              "name": "maxSupply",
              "type": "uint256"
            },
            {
              "internalType": "uint256",
              "name": "totalSupply",
              "type": "uint256"
            },
            {
              "internalType": "uint256",
              "name": "maxMintPerAddress",
              "type": "uint256"
            },
            {
              "internalType": "uint256",
              "name": "maxMintPerTx",
              "type": "uint256"
            }
          ],
          "internalType": "struct IDrop.Info",
          "name": "",
          "type": "tuple"
        }
      ],
      "stateMutability": "view",
      "type": "function"
    },
    {
      "inputs": [
        {
          "internalType": "address",
          "name": "owner",
          "type": "address"
        },
        {
          "internalType": "address",
          "name": "operator",
          "type": "address"
        }
      ],
      "name": "isApprovedForAll",
      "outputs": [
        {
          "internalType": "bool",
          "name": "",
          "type": "bool"
        }
      ],
      "stateMutability": "view",
      "type": "function"
    },
    {
      "inputs": [],
      "name": "isRevealed",
      "outputs": [
        {
          "internalType": "bool",
          "name": "",
          "type": "bool"
        }
      ],
      "stateMutability": "view",
      "type": "function"
    },
    {
      "inputs": [
        {
          "internalType": "address",
          "name": "_address",
          "type": "address"
        }
      ],
      "name": "isWhitelisted",
      "outputs": [
        {
          "internalType": "bool",
          "name": "",
          "type": "bool"
        }
      ],
      "stateMutability": "view",
      "type": "function"
    },
    {
      "inputs": [],
      "name": "marketShareFee",
      "outputs": [
        {
          "internalType": "uint256",
          "name": "",
          "type": "uint256"
        }
      ],
      "stateMutability": "view",
      "type": "function"
    },
    {
      "inputs": [],
      "name": "maxSupply",
      "outputs": [
        {
          "internalType": "uint256",
          "name": "",
          "type": "uint256"
        }
      ],
      "stateMutability": "view",
      "type": "function"
    },
    {
      "inputs": [],
      "name": "memberMintCost",
      "outputs": [
        {
          "internalType": "uint256",
          "name": "",
          "type": "uint256"
        }
      ],
      "stateMutability": "view",
      "type": "function"
    },
    {
      "inputs": [
        {
          "internalType": "uint256",
          "name": "_amount",
          "type": "uint256"
        }
      ],
      "name": "mint",
      "outputs": [],
      "stateMutability": "payable",
      "type": "function"
    },
    {
      "inputs": [
        {
          "internalType": "address",
          "name": "_minter",
          "type": "address"
        }
      ],
      "name": "mintCost",
      "outputs": [
        {
          "internalType": "uint256",
          "name": "",
          "type": "uint256"
        }
      ],
      "stateMutability": "view",
      "type": "function"
    },
    {
      "inputs": [],
      "name": "mintEnabled",
      "outputs": [
        {
          "internalType": "bool",
          "name": "",
          "type": "bool"
        }
      ],
      "stateMutability": "view",
      "type": "function"
    },
    {
      "inputs": [
        {
          "internalType": "uint256",
          "name": "_amount",
          "type": "uint256"
        }
      ],
      "name": "mintExternal",
      "outputs": [],
      "stateMutability": "payable",
      "type": "function"
    },
    {
      "inputs": [
        {
          "internalType": "uint256",
          "name": "_amount",
          "type": "uint256"
        }
      ],
      "name": "mintExternalWithERC20Token",
      "outputs": [],
      "stateMutability": "nonpayable",
      "type": "function"
    },
    {
      "inputs": [
        {
          "internalType": "address",
          "name": "",
          "type": "address"
        }
      ],
      "name": "minters",
      "outputs": [
        {
          "internalType": "uint256",
          "name": "",
          "type": "uint256"
        }
      ],
      "stateMutability": "view",
      "type": "function"
    },
    {
      "inputs": [],
      "name": "name",
      "outputs": [
        {
          "internalType": "string",
          "name": "",
          "type": "string"
        }
      ],
      "stateMutability": "view",
      "type": "function"
    },
    {
      "inputs": [],
      "name": "normalMintCost",
      "outputs": [
        {
          "internalType": "uint256",
          "name": "",
          "type": "uint256"
        }
      ],
      "stateMutability": "view",
      "type": "function"
    },
    {
      "inputs": [
        {
          "internalType": "address",
          "name": "_ownerAddress",
          "type": "address"
        }
      ],
      "name": "ownedNFTIdList",
      "outputs": [
        {
          "internalType": "uint256[]",
          "name": "",
          "type": "uint256[]"
        }
      ],
      "stateMutability": "view",
      "type": "function"
    },
    {
      "inputs": [],
      "name": "owner",
      "outputs": [
        {
          "internalType": "address",
          "name": "",
          "type": "address"
        }
      ],
      "stateMutability": "view",
      "type": "function"
    },
    {
      "inputs": [
        {
          "internalType": "uint256",
          "name": "tokenId",
          "type": "uint256"
        }
      ],
      "name": "ownerOf",
      "outputs": [
        {
          "internalType": "address",
          "name": "",
          "type": "address"
        }
      ],
      "stateMutability": "view",
      "type": "function"
    },
    {
      "inputs": [],
      "name": "payableERC20Token",
      "outputs": [
        {
          "internalType": "address",
          "name": "",
          "type": "address"
        }
      ],
      "stateMutability": "view",
      "type": "function"
    },
    {
      "inputs": [],
      "name": "payableERC20TokenMintCost",
      "outputs": [
        {
          "internalType": "uint256",
          "name": "",
          "type": "uint256"
        }
      ],
      "stateMutability": "view",
      "type": "function"
    },
    {
      "inputs": [
        {
          "internalType": "address",
          "name": "dest",
          "type": "address"
        }
      ],
      "name": "payments",
      "outputs": [
        {
          "internalType": "uint256",
          "name": "",
          "type": "uint256"
        }
      ],
      "stateMutability": "view",
      "type": "function"
    },
    {
      "inputs": [
        {
          "internalType": "address[]",
          "name": "_addresses",
          "type": "address[]"
        }
      ],
      "name": "removeWhitelist",
      "outputs": [],
      "stateMutability": "nonpayable",
      "type": "function"
    },
    {
      "inputs": [],
      "name": "renounceOwnership",
      "outputs": [],
      "stateMutability": "nonpayable",
      "type": "function"
    },
    {
      "inputs": [
        {
          "internalType": "address",
          "name": "from",
          "type": "address"
        },
        {
          "internalType": "address",
          "name": "to",
          "type": "address"
        },
        {
          "internalType": "uint256",
          "name": "tokenId",
          "type": "uint256"
        }
      ],
      "name": "safeTransferFrom",
      "outputs": [],
      "stateMutability": "nonpayable",
      "type": "function"
    },
    {
      "inputs": [
        {
          "internalType": "address",
          "name": "from",
          "type": "address"
        },
        {
          "internalType": "address",
          "name": "to",
          "type": "address"
        },
        {
          "internalType": "uint256",
          "name": "tokenId",
          "type": "uint256"
        },
        {
          "internalType": "bytes",
          "name": "_data",
          "type": "bytes"
        }
      ],
      "name": "safeTransferFrom",
      "outputs": [],
      "stateMutability": "nonpayable",
      "type": "function"
    },
    {
      "inputs": [
        {
          "internalType": "address",
          "name": "operator",
          "type": "address"
        },
        {
          "internalType": "bool",
          "name": "approved",
          "type": "bool"
        }
      ],
      "name": "setApprovalForAll",
      "outputs": [],
      "stateMutability": "nonpayable",
      "type": "function"
    },
    {
      "inputs": [
        {
          "internalType": "bool",
          "name": "_canMintWithERC20",
          "type": "bool"
        }
      ],
      "name": "setCanMintWithERC20",
      "outputs": [],
      "stateMutability": "nonpayable",
      "type": "function"
    },
    {
      "inputs": [
        {
          "internalType": "uint256",
          "name": "_fee",
          "type": "uint256"
        },
        {
          "internalType": "uint256",
          "name": "_denominator",
          "type": "uint256"
        }
      ],
      "name": "setMarketShareFee",
      "outputs": [],
      "stateMutability": "nonpayable",
      "type": "function"
    },
    {
      "inputs": [
        {
          "internalType": "uint256",
          "name": "_normalMintCost",
          "type": "uint256"
        },
        {
          "internalType": "uint256",
          "name": "_memberMintCost",
          "type": "uint256"
        },
        {
          "internalType": "uint256",
          "name": "_whitelistMintCost",
          "type": "uint256"
        },
        {
          "internalType": "uint256",
          "name": "_payableERC20TokenMintCost",
          "type": "uint256"
        }
      ],
      "name": "setMintCosts",
      "outputs": [],
      "stateMutability": "nonpayable",
      "type": "function"
    },
    {
      "inputs": [
        {
          "internalType": "bool",
          "name": "_mintEnabled",
          "type": "bool"
        }
      ],
      "name": "setMintEnabled",
      "outputs": [],
      "stateMutability": "nonpayable",
      "type": "function"
    },
    {
      "inputs": [
        {
          "internalType": "address",
          "name": "_payableERC20Token",
          "type": "address"
        }
      ],
      "name": "setPayableERC20Token",
      "outputs": [],
      "stateMutability": "nonpayable",
      "type": "function"
    },
    {
      "inputs": [],
      "name": "setRevealed",
      "outputs": [],
      "stateMutability": "nonpayable",
      "type": "function"
    },
    {
      "inputs": [
        {
          "internalType": "bool",
          "name": "_whitelistOnly",
          "type": "bool"
        }
      ],
      "name": "setWhitelistOnly",
      "outputs": [],
      "stateMutability": "nonpayable",
      "type": "function"
    },
    {
      "inputs": [
        {
          "internalType": "bytes4",
          "name": "interfaceId",
          "type": "bytes4"
        }
      ],
      "name": "supportsInterface",
      "outputs": [
        {
          "internalType": "bool",
          "name": "",
          "type": "bool"
        }
      ],
      "stateMutability": "view",
      "type": "function"
    },
    {
      "inputs": [],
      "name": "symbol",
      "outputs": [
        {
          "internalType": "string",
          "name": "",
          "type": "string"
        }
      ],
      "stateMutability": "view",
      "type": "function"
    },
    {
      "inputs": [
        {
          "internalType": "uint256",
          "name": "index",
          "type": "uint256"
        }
      ],
      "name": "tokenByIndex",
      "outputs": [
        {
          "internalType": "uint256",
          "name": "",
          "type": "uint256"
        }
      ],
      "stateMutability": "view",
      "type": "function"
    },
    {
      "inputs": [
        {
          "internalType": "address",
          "name": "owner",
          "type": "address"
        },
        {
          "internalType": "uint256",
          "name": "index",
          "type": "uint256"
        }
      ],
      "name": "tokenOfOwnerByIndex",
      "outputs": [
        {
          "internalType": "uint256",
          "name": "",
          "type": "uint256"
        }
      ],
      "stateMutability": "view",
      "type": "function"
    },
    {
      "inputs": [
        {
          "internalType": "uint256",
          "name": "tokenID",
          "type": "uint256"
        }
      ],
      "name": "tokenURI",
      "outputs": [
        {
          "internalType": "string",
          "name": "",
          "type": "string"
        }
      ],
      "stateMutability": "view",
      "type": "function"
    },
    {
      "inputs": [],
      "name": "totalSupply",
      "outputs": [
        {
          "internalType": "uint256",
          "name": "",
          "type": "uint256"
        }
      ],
      "stateMutability": "view",
      "type": "function"
    },
    {
      "inputs": [
        {
          "internalType": "address",
          "name": "from",
          "type": "address"
        },
        {
          "internalType": "address",
          "name": "to",
          "type": "address"
        },
        {
          "internalType": "uint256",
          "name": "tokenId",
          "type": "uint256"
        }
      ],
      "name": "transferFrom",
      "outputs": [],
      "stateMutability": "nonpayable",
      "type": "function"
    },
    {
      "inputs": [
        {
          "internalType": "address",
          "name": "newOwner",
          "type": "address"
        }
      ],
      "name": "transferOwnership",
      "outputs": [],
      "stateMutability": "nonpayable",
      "type": "function"
    },
    {
      "inputs": [],
      "name": "treasuryAddress",
      "outputs": [
        {
          "internalType": "address",
          "name": "",
          "type": "address"
        }
      ],
      "stateMutability": "view",
      "type": "function"
    },
    {
      "inputs": [
        {
          "internalType": "string",
          "name": "_newURI",
          "type": "string"
        }
      ],
      "name": "updateBaseURI",
      "outputs": [],
      "stateMutability": "nonpayable",
      "type": "function"
    },
    {
      "inputs": [
        {
          "internalType": "address",
          "name": "",
          "type": "address"
        }
      ],
      "name": "whitelist",
      "outputs": [
        {
          "internalType": "bool",
          "name": "",
          "type": "bool"
        }
      ],
      "stateMutability": "view",
      "type": "function"
    },
    {
      "inputs": [],
      "name": "whitelistMintCost",
      "outputs": [
        {
          "internalType": "uint256",
          "name": "",
          "type": "uint256"
        }
      ],
      "stateMutability": "view",
      "type": "function"
    },
    {
      "inputs": [],
      "name": "whitelistOnly",
      "outputs": [
        {
          "internalType": "bool",
          "name": "",
          "type": "bool"
        }
      ],
      "stateMutability": "view",
      "type": "function"
    },
    {
      "inputs": [
        {
          "internalType": "address payable",
          "name": "payee",
          "type": "address"
        }
      ],
      "name": "withdrawPayments",
      "outputs": [],
      "stateMutability": "nonpayable",
      "type": "function"
    }
  ],
  "bytecode": "0x60a06040523480156200001157600080fd5b50604051620083bf380380620083bf8339818101604052810190620000379190620011b9565b6040518060400160405280601381526020017f466c616d696e67205068656e697820436c7562000000000000000000000000008152506040518060400160405280600381526020017f46504300000000000000000000000000000000000000000000000000000000008152508160009080519060200190620000bb9291906200102f565b508060019080519060200190620000d49291906200102f565b505050620000f7620000eb620003c060201b60201c565b620003c860201b60201c565b6040516200010590620010c0565b604051809103906000f08015801562000122573d6000803e3d6000fd5b5073ffffffffffffffffffffffffffffffffffffffff1660808173ffffffffffffffffffffffffffffffffffffffff1660601b81525050737a3cdb2364f92369a602cae81167d0679087e6a3601460006101000a81548173ffffffffffffffffffffffffffffffffffffffff021916908373ffffffffffffffffffffffffffffffffffffffff1602179055508160159080519060200190620001c69291906200102f565b506000601660006101000a81548160ff0219169083151502179055506000601660016101000a81548160ff0219169083151502179055506000601660026101000a81548160ff0219169083151502179055506000601660036101000a81548160ff0219169083151502179055507357d06bb1e3b60c875cd3a4445a53217f9b44d390601260006101000a81548173ffffffffffffffffffffffffffffffffffffffff021916908373ffffffffffffffffffffffffffffffffffffffff16021790555073f7c5a5dbbe4b73c22e9fb402dc1816769c4bc46a600d60006101000a81548173ffffffffffffffffffffffffffffffffffffffff021916908373ffffffffffffffffffffffffffffffffffffffff160217905550680fb88ef7839f480000600e81905550680e18398e7601900000600f81905550680d02ab486cedc0000060108190555069010f0cf064dd592000006011819055506064600a620186a0620003329190620015a1565b6200033e919062001569565b6013819055506000811115620003a75760005b81811015620003a557600060016200036e6200048e60201b60201c565b6200037a91906200150c565b90506200038e33826200049b60201b60201c565b5080806200039c9062001749565b91505062000351565b505b620003b833620004c160201b60201c565b505062001a00565b600033905090565b6000600a60009054906101000a900473ffffffffffffffffffffffffffffffffffffffff16905081600a60006101000a81548173ffffffffffffffffffffffffffffffffffffffff021916908373ffffffffffffffffffffffffffffffffffffffff1602179055508173ffffffffffffffffffffffffffffffffffffffff168173ffffffffffffffffffffffffffffffffffffffff167f8be0079c531659141344cd1fd0a4f28419497f9722a3daafe3b4186f6b6457e060405160405180910390a35050565b6000600880549050905090565b620004bd828260405180602001604052806000815250620005d760201b60201c565b5050565b620004d1620003c060201b60201c565b73ffffffffffffffffffffffffffffffffffffffff16620004f76200064560201b60201c565b73ffffffffffffffffffffffffffffffffffffffff161462000550576040517f08c379a000000000000000000000000000000000000000000000000000000000815260040162000547906200145e565b60405180910390fd5b600073ffffffffffffffffffffffffffffffffffffffff168173ffffffffffffffffffffffffffffffffffffffff161415620005c3576040517f08c379a0000000000000000000000000000000000000000000000000000000008152600401620005ba90620013d6565b60405180910390fd5b620005d481620003c860201b60201c565b50565b620005e983836200066f60201b60201c565b620005fe60008484846200085560201b60201c565b62000640576040517f08c379a00000000000000000000000000000000000000000000000000000000081526004016200063790620013b4565b60405180910390fd5b505050565b6000600a60009054906101000a900473ffffffffffffffffffffffffffffffffffffffff16905090565b600073ffffffffffffffffffffffffffffffffffffffff168273ffffffffffffffffffffffffffffffffffffffff161415620006e2576040517f08c379a0000000000000000000000000000000000000000000000000000000008152600401620006d9906200143c565b60405180910390fd5b620006f38162000a0f60201b60201c565b1562000736576040517f08c379a00000000000000000000000000000000000000000000000000000000081526004016200072d90620013f8565b60405180910390fd5b6200074a6000838362000a7b60201b60201c565b6001600360008473ffffffffffffffffffffffffffffffffffffffff1673ffffffffffffffffffffffffffffffffffffffff16815260200190815260200160002060008282546200079c91906200150c565b92505081905550816002600083815260200190815260200160002060006101000a81548173ffffffffffffffffffffffffffffffffffffffff021916908373ffffffffffffffffffffffffffffffffffffffff160217905550808273ffffffffffffffffffffffffffffffffffffffff16600073ffffffffffffffffffffffffffffffffffffffff167fddf252ad1be2c89b69c2b068fc378daa952ba7f163c4a11628f55a4df523b3ef60405160405180910390a45050565b6000620008838473ffffffffffffffffffffffffffffffffffffffff1662000bc260201b620029cd1760201c565b1562000a02578373ffffffffffffffffffffffffffffffffffffffff1663150b7a02620008b5620003c060201b60201c565b8786866040518563ffffffff1660e01b8152600401620008d9949392919062001360565b602060405180830381600087803b158015620008f457600080fd5b505af19250505080156200092857506040513d601f19601f820116820180604052508101906200092591906200118d565b60015b620009b1573d80600081146200095b576040519150601f19603f3d011682016040523d82523d6000602084013e62000960565b606091505b50600081511415620009a9576040517f08c379a0000000000000000000000000000000000000000000000000000000008152600401620009a090620013b4565b60405180910390fd5b805181602001fd5b63150b7a0260e01b7bffffffffffffffffffffffffffffffffffffffffffffffffffffffff1916817bffffffffffffffffffffffffffffffffffffffffffffffffffffffff19161491505062000a07565b600190505b949350505050565b60008073ffffffffffffffffffffffffffffffffffffffff166002600084815260200190815260200160002060009054906101000a900473ffffffffffffffffffffffffffffffffffffffff1673ffffffffffffffffffffffffffffffffffffffff1614159050919050565b62000a9383838362000bd560201b620029e01760201c565b600073ffffffffffffffffffffffffffffffffffffffff168373ffffffffffffffffffffffffffffffffffffffff16141562000ae05762000ada8162000bda60201b60201c565b62000b28565b8173ffffffffffffffffffffffffffffffffffffffff168373ffffffffffffffffffffffffffffffffffffffff161462000b275762000b26838262000c2360201b60201c565b5b5b600073ffffffffffffffffffffffffffffffffffffffff168273ffffffffffffffffffffffffffffffffffffffff16141562000b755762000b6f8162000da060201b60201c565b62000bbd565b8273ffffffffffffffffffffffffffffffffffffffff168273ffffffffffffffffffffffffffffffffffffffff161462000bbc5762000bbb828262000ee860201b60201c565b5b5b505050565b600080823b905060008111915050919050565b505050565b6008805490506009600083815260200190815260200160002081905550600881908060018154018082558091505060019003906000526020600020016000909190919091505550565b6000600162000c3d8462000f7460201b62001b391760201c565b62000c49919062001602565b905060006007600084815260200190815260200160002054905081811462000d2f576000600660008673ffffffffffffffffffffffffffffffffffffffff1673ffffffffffffffffffffffffffffffffffffffff168152602001908152602001600020600084815260200190815260200160002054905080600660008773ffffffffffffffffffffffffffffffffffffffff1673ffffffffffffffffffffffffffffffffffffffff168152602001908152602001600020600084815260200190815260200160002081905550816007600083815260200190815260200160002081905550505b6007600084815260200190815260200160002060009055600660008573ffffffffffffffffffffffffffffffffffffffff1673ffffffffffffffffffffffffffffffffffffffff16815260200190815260200160002060008381526020019081526020016000206000905550505050565b6000600160088054905062000db6919062001602565b905060006009600084815260200190815260200160002054905060006008838154811062000e0d577f4e487b7100000000000000000000000000000000000000000000000000000000600052603260045260246000fd5b90600052602060002001549050806008838154811062000e56577f4e487b7100000000000000000000000000000000000000000000000000000000600052603260045260246000fd5b90600052602060002001819055508160096000838152602001908152602001600020819055506009600085815260200190815260200160002060009055600880548062000ecc577f4e487b7100000000000000000000000000000000000000000000000000000000600052603160045260246000fd5b6001900381819060005260206000200160009055905550505050565b600062000f008362000f7460201b62001b391760201c565b905081600660008573ffffffffffffffffffffffffffffffffffffffff1673ffffffffffffffffffffffffffffffffffffffff168152602001908152602001600020600083815260200190815260200160002081905550806007600084815260200190815260200160002081905550505050565b60008073ffffffffffffffffffffffffffffffffffffffff168273ffffffffffffffffffffffffffffffffffffffff16141562000fe8576040517f08c379a000000000000000000000000000000000000000000000000000000000815260040162000fdf906200141a565b60405180910390fd5b600360008373ffffffffffffffffffffffffffffffffffffffff1673ffffffffffffffffffffffffffffffffffffffff168152602001908152602001600020549050919050565b8280546200103d90620016dd565b90600052602060002090601f016020900481019282620010615760008555620010ad565b82601f106200107c57805160ff1916838001178555620010ad565b82800160010185558215620010ad579182015b82811115620010ac5782518255916020019190600101906200108f565b5b509050620010bc9190620010ce565b5090565b610d0980620076b683390190565b5b80821115620010e9576000816000905550600101620010cf565b5090565b600062001104620010fe84620014a9565b62001480565b9050828152602081018484840111156200111d57600080fd5b6200112a848285620016a7565b509392505050565b6000815190506200114381620019cc565b92915050565b600082601f8301126200115b57600080fd5b81516200116d848260208601620010ed565b91505092915050565b6000815190506200118781620019e6565b92915050565b600060208284031215620011a057600080fd5b6000620011b08482850162001132565b91505092915050565b60008060408385031215620011cd57600080fd5b600083015167ffffffffffffffff811115620011e857600080fd5b620011f68582860162001149565b9250506020620012098582860162001176565b9150509250929050565b6200121e816200163d565b82525050565b60006200123182620014df565b6200123d8185620014ea565b93506200124f818560208601620016a7565b6200125a8162001853565b840191505092915050565b600062001274603283620014fb565b9150620012818262001864565b604082019050919050565b60006200129b602683620014fb565b9150620012a882620018b3565b604082019050919050565b6000620012c2601c83620014fb565b9150620012cf8262001902565b602082019050919050565b6000620012e9602a83620014fb565b9150620012f6826200192b565b604082019050919050565b600062001310602083620014fb565b91506200131d826200197a565b602082019050919050565b600062001337602083620014fb565b91506200134482620019a3565b602082019050919050565b6200135a816200169d565b82525050565b600060808201905062001377600083018762001213565b62001386602083018662001213565b6200139560408301856200134f565b8181036060830152620013a9818462001224565b905095945050505050565b60006020820190508181036000830152620013cf8162001265565b9050919050565b60006020820190508181036000830152620013f1816200128c565b9050919050565b600060208201905081810360008301526200141381620012b3565b9050919050565b600060208201905081810360008301526200143581620012da565b9050919050565b60006020820190508181036000830152620014578162001301565b9050919050565b60006020820190508181036000830152620014798162001328565b9050919050565b60006200148c6200149f565b90506200149a828262001713565b919050565b6000604051905090565b600067ffffffffffffffff821115620014c757620014c662001824565b5b620014d28262001853565b9050602081019050919050565b600081519050919050565b600082825260208201905092915050565b600082825260208201905092915050565b600062001519826200169d565b915062001526836200169d565b9250827fffffffffffffffffffffffffffffffffffffffffffffffffffffffffffffffff038211156200155e576200155d62001797565b5b828201905092915050565b600062001576826200169d565b915062001583836200169d565b925082620015965762001595620017c6565b5b828204905092915050565b6000620015ae826200169d565b9150620015bb836200169d565b9250817fffffffffffffffffffffffffffffffffffffffffffffffffffffffffffffffff0483118215151615620015f757620015f662001797565b5b828202905092915050565b60006200160f826200169d565b91506200161c836200169d565b92508282101562001632576200163162001797565b5b828203905092915050565b60006200164a826200167d565b9050919050565b60007fffffffff0000000000000000000000000000000000000000000000000000000082169050919050565b600073ffffffffffffffffffffffffffffffffffffffff82169050919050565b6000819050919050565b60005b83811015620016c7578082015181840152602081019050620016aa565b83811115620016d7576000848401525b50505050565b60006002820490506001821680620016f657607f821691505b602082108114156200170d576200170c620017f5565b5b50919050565b6200171e8262001853565b810181811067ffffffffffffffff8211171562001740576200173f62001824565b5b80604052505050565b600062001756826200169d565b91507fffffffffffffffffffffffffffffffffffffffffffffffffffffffffffffffff8214156200178c576200178b62001797565b5b600182019050919050565b7f4e487b7100000000000000000000000000000000000000000000000000000000600052601160045260246000fd5b7f4e487b7100000000000000000000000000000000000000000000000000000000600052601260045260246000fd5b7f4e487b7100000000000000000000000000000000000000000000000000000000600052602260045260246000fd5b7f4e487b7100000000000000000000000000000000000000000000000000000000600052604160045260246000fd5b6000601f19601f8301169050919050565b7f4552433732313a207472616e7366657220746f206e6f6e20455243373231526560008201527f63656976657220696d706c656d656e7465720000000000000000000000000000602082015250565b7f4f776e61626c653a206e6577206f776e657220697320746865207a65726f206160008201527f6464726573730000000000000000000000000000000000000000000000000000602082015250565b7f4552433732313a20746f6b656e20616c7265616479206d696e74656400000000600082015250565b7f4552433732313a2062616c616e636520717565727920666f7220746865207a6560008201527f726f206164647265737300000000000000000000000000000000000000000000602082015250565b7f4552433732313a206d696e7420746f20746865207a65726f2061646472657373600082015250565b7f4f776e61626c653a2063616c6c6572206973206e6f7420746865206f776e6572600082015250565b620019d78162001651565b8114620019e357600080fd5b50565b620019f1816200169d565b8114620019fd57600080fd5b50565b60805160601c615c8962001a2d60003960008181611628015281816123c4015261315f0152615c896000f3fe60806040526004361061031a5760003560e01c806370a08231116101ab578063c2ba4744116100f7578063ea05a8c611610095578063f30e60e31161006f578063f30e60e314610bf4578063f46a04eb14610c1d578063f46eccc414610c46578063f53a0b1d14610c835761031a565b8063ea05a8c614610b79578063edac985b14610ba2578063f2fde38b14610bcb5761031a565b8063d1239730116100d1578063d123973014610aa9578063d5abeb0114610ad4578063e2982c2114610aff578063e985e9c514610b3c5761031a565b8063c2ba474414610a04578063c5f956af14610a41578063c87b56dd14610a6c5761031a565b806399f7e45f11610164578063a22cb4651161013e578063a22cb4651461095c578063b0d356e514610985578063b12dab6e146109b0578063b88d4fde146109db5761031a565b806399f7e45f146108da5780639b19251a14610903578063a0712d68146109405761031a565b806370a08231146107ca578063715018a614610807578063839ad1d31461081e5780638da5cb5b1461085b578063931688cb1461088657806395d89b41146108af5761031a565b806331b3eb941161026a5780634b4687b5116102235780635a9b0b89116101fd5780635a9b0b891461071b5780636352211e1461074657806363be7533146107835780636a7957321461079f5761031a565b80634b4687b5146106885780634f6ccce7146106b357806354214f69146106f05761031a565b806331b3eb941461058c5780633af32abf146105b55780633b71275d146105f25780633bd649681461061d578063413fa8e31461063457806342842e0e1461065f5761031a565b806318160ddd116102d7578063288d9faf116102b1578063288d9faf146104be5780632acc659e146104e95780632f745c59146105265780633096b9e8146105635761031a565b806318160ddd14610441578063232452161461046c57806323b872dd146104955761031a565b806301ffc9a71461031f57806306fdde031461035c578063081812fc14610387578063095ea7b3146103c45780630fa4e43e146103ed57806312e179e914610416575b600080fd5b34801561032b57600080fd5b5061034660048036038101906103419190614521565b610cac565b6040516103539190614db9565b60405180910390f35b34801561036857600080fd5b50610371610d26565b60405161037e9190614dd4565b60405180910390f35b34801561039357600080fd5b506103ae60048036038101906103a991906145b4565b610db8565b6040516103bb9190614cde565b60405180910390f35b3480156103d057600080fd5b506103eb60048036038101906103e6919061444e565b610e3d565b005b3480156103f957600080fd5b50610414600480360381019061040f91906145b4565b610f55565b005b34801561042257600080fd5b5061042b6112b8565b6040516104389190615111565b60405180910390f35b34801561044d57600080fd5b506104566112be565b6040516104639190615111565b60405180910390f35b34801561047857600080fd5b50610493600480360381019061048e919061448a565b6112cb565b005b3480156104a157600080fd5b506104bc60048036038101906104b79190614348565b611412565b005b3480156104ca57600080fd5b506104d3611472565b6040516104e09190615111565b60405180910390f35b3480156104f557600080fd5b50610510600480360381019061050b91906142ba565b611478565b60405161051d9190615111565b60405180910390f35b34801561053257600080fd5b5061054d6004803603810190610548919061444e565b6114e8565b60405161055a9190615111565b60405180910390f35b34801561056f57600080fd5b5061058a600480360381019061058591906144cf565b61158d565b005b34801561059857600080fd5b506105b360048036038101906105ae91906142e3565b611626565b005b3480156105c157600080fd5b506105dc60048036038101906105d791906142ba565b6116b4565b6040516105e99190614db9565b60405180910390f35b3480156105fe57600080fd5b506106076117bc565b6040516106149190614db9565b60405180910390f35b34801561062957600080fd5b506106326117cf565b005b34801561064057600080fd5b50610649611868565b6040516106569190615111565b60405180910390f35b34801561066b57600080fd5b5061068660048036038101906106819190614348565b61186e565b005b34801561069457600080fd5b5061069d61188e565b6040516106aa9190614db9565b60405180910390f35b3480156106bf57600080fd5b506106da60048036038101906106d591906145b4565b6118a1565b6040516106e79190615111565b60405180910390f35b3480156106fc57600080fd5b50610705611938565b6040516107129190614db9565b60405180910390f35b34801561072757600080fd5b5061073061194b565b60405161073d91906150f6565b60405180910390f35b34801561075257600080fd5b5061076d600480360381019061076891906145b4565b61199c565b60405161077a9190614cde565b60405180910390f35b61079d600480360381019061079891906145b4565b611a4e565b005b3480156107ab57600080fd5b506107b4611b33565b6040516107c19190615111565b60405180910390f35b3480156107d657600080fd5b506107f160048036038101906107ec91906142ba565b611b39565b6040516107fe9190615111565b60405180910390f35b34801561081357600080fd5b5061081c611bf1565b005b34801561082a57600080fd5b50610845600480360381019061084091906142ba565b611c6f565b6040516108529190614d97565b60405180910390f35b34801561086757600080fd5b50610870611d6f565b60405161087d9190614cde565b60405180910390f35b34801561089257600080fd5b506108ad60048036038101906108a89190614573565b611d99565b005b3480156108bb57600080fd5b506108c4611e2f565b6040516108d19190614dd4565b60405180910390f35b3480156108e657600080fd5b5061090160048036038101906108fc91906142ba565b611ec1565b005b34801561090f57600080fd5b5061092a600480360381019061092591906142ba565b611f81565b6040516109379190614db9565b60405180910390f35b61095a600480360381019061095591906145b4565b611fa1565b005b34801561096857600080fd5b50610983600480360381019061097e9190614412565b6121de565b005b34801561099157600080fd5b5061099a6121f4565b6040516109a79190614cde565b60405180910390f35b3480156109bc57600080fd5b506109c561221a565b6040516109d29190615111565b60405180910390f35b3480156109e757600080fd5b50610a0260048036038101906109fd9190614397565b612220565b005b348015610a1057600080fd5b50610a2b6004803603810190610a2691906142ba565b612282565b604051610a389190615111565b60405180910390f35b348015610a4d57600080fd5b50610a56612308565b604051610a639190614cde565b60405180910390f35b348015610a7857600080fd5b50610a936004803603810190610a8e91906145b4565b61232e565b604051610aa09190614dd4565b60405180910390f35b348015610ab557600080fd5b50610abe6123a3565b604051610acb9190614db9565b60405180910390f35b348015610ae057600080fd5b50610ae96123b6565b604051610af69190615111565b60405180910390f35b348015610b0b57600080fd5b50610b266004803603810190610b2191906142ba565b6123c0565b604051610b339190615111565b60405180910390f35b348015610b4857600080fd5b50610b636004803603810190610b5e919061430c565b612472565b604051610b709190614db9565b60405180910390f35b348015610b8557600080fd5b50610ba06004803603810190610b9b91906144cf565b612506565b005b348015610bae57600080fd5b50610bc96004803603810190610bc4919061448a565b61259f565b005b348015610bd757600080fd5b50610bf26004803603810190610bed91906142ba565b6126e6565b005b348015610c0057600080fd5b50610c1b6004803603810190610c169190614606565b6127de565b005b348015610c2957600080fd5b50610c446004803603810190610c3f91906144cf565b61287e565b005b348015610c5257600080fd5b50610c6d6004803603810190610c6891906142ba565b612917565b604051610c7a9190615111565b60405180910390f35b348015610c8f57600080fd5b50610caa6004803603810190610ca59190614642565b61292f565b005b60007f780e9d63000000000000000000000000000000000000000000000000000000007bffffffffffffffffffffffffffffffffffffffffffffffffffffffff1916827bffffffffffffffffffffffffffffffffffffffffffffffffffffffff19161480610d1f5750610d1e826129e5565b5b9050919050565b606060008054610d3590615421565b80601f0160208091040260200160405190810160405280929190818152602001828054610d6190615421565b8015610dae5780601f10610d8357610100808354040283529160200191610dae565b820191906000526020600020905b815481529060010190602001808311610d9157829003601f168201915b5050505050905090565b6000610dc382612ac7565b610e02576040517f08c379a0000000000000000000000000000000000000000000000000000000008152600401610df990614f76565b60405180910390fd5b6004600083815260200190815260200160002060009054906101000a900473ffffffffffffffffffffffffffffffffffffffff169050919050565b6000610e488261199c565b90508073ffffffffffffffffffffffffffffffffffffffff168373ffffffffffffffffffffffffffffffffffffffff161415610eb9576040517f08c379a0000000000000000000000000000000000000000000000000000000008152600401610eb090615036565b60405180910390fd5b8073ffffffffffffffffffffffffffffffffffffffff16610ed8612b33565b73ffffffffffffffffffffffffffffffffffffffff161480610f075750610f0681610f01612b33565b612472565b5b610f46576040517f08c379a0000000000000000000000000000000000000000000000000000000008152600401610f3d90614ed6565b60405180910390fd5b610f508383612b3b565b505050565b601660009054906101000a900460ff16610fa4576040517f08c379a0000000000000000000000000000000000000000000000000000000008152600401610f9b90615016565b60405180910390fd5b601660019054906101000a900460ff161561100257610fc2336116b4565b611001576040517f08c379a0000000000000000000000000000000000000000000000000000000008152600401610ff8906150b6565b60405180910390fd5b5b60011515601660029054906101000a900460ff16151514611058576040517f08c379a000000000000000000000000000000000000000000000000000000000815260040161104f90614ff6565b60405180910390fd5b600a81111561109c576040517f08c379a000000000000000000000000000000000000000000000000000000000815260040161109390615076565b60405180910390fd5b600081116110df576040517f08c379a00000000000000000000000000000000000000000000000000000000081526004016110d690615076565b60405180910390fd5b611a0a816110eb6112be565b6110f59190615244565b1115611136576040517f08c379a000000000000000000000000000000000000000000000000000000000815260040161112d90614f36565b60405180910390fd5b60008160115461114691906152cb565b9050601260009054906101000a900473ffffffffffffffffffffffffffffffffffffffff1673ffffffffffffffffffffffffffffffffffffffff166323b872dd33600d60009054906101000a900473ffffffffffffffffffffffffffffffffffffffff16846040518463ffffffff1660e01b81526004016111c993929190614d14565b602060405180830381600087803b1580156111e357600080fd5b505af11580156111f7573d6000803e3d6000fd5b505050506040513d601f19601f8201168201806040525081019061121b91906144f8565b5060005b8281101561125d57600060016112336112be565b61123d9190615244565b90506112493382612bf4565b50808061125590615484565b91505061121f565b5081600c60003373ffffffffffffffffffffffffffffffffffffffff1673ffffffffffffffffffffffffffffffffffffffff16815260200190815260200160002060008282546112ad9190615244565b925050819055505050565b60135481565b6000600880549050905090565b6112d3612b33565b73ffffffffffffffffffffffffffffffffffffffff166112f1611d6f565b73ffffffffffffffffffffffffffffffffffffffff1614611347576040517f08c379a000000000000000000000000000000000000000000000000000000000815260040161133e90614f96565b60405180910390fd5b60005b8282905081101561140d576000600b6000858585818110611394577f4e487b7100000000000000000000000000000000000000000000000000000000600052603260045260246000fd5b90506020020160208101906113a991906142ba565b73ffffffffffffffffffffffffffffffffffffffff1673ffffffffffffffffffffffffffffffffffffffff16815260200190815260200160002060006101000a81548160ff021916908315150217905550808061140590615484565b91505061134a565b505050565b61142361141d612b33565b82612c12565b611462576040517f08c379a000000000000000000000000000000000000000000000000000000000815260040161145990615056565b60405180910390fd5b61146d838383612cf0565b505050565b600f5481565b600080600e54905060011515600b60008573ffffffffffffffffffffffffffffffffffffffff1673ffffffffffffffffffffffffffffffffffffffff16815260200190815260200160002060009054906101000a900460ff16151514156114df5760105490505b80915050919050565b60006114f383611b39565b8210611534576040517f08c379a000000000000000000000000000000000000000000000000000000000815260040161152b90614df6565b60405180910390fd5b600660008473ffffffffffffffffffffffffffffffffffffffff1673ffffffffffffffffffffffffffffffffffffffff168152602001908152602001600020600083815260200190815260200160002054905092915050565b611595612b33565b73ffffffffffffffffffffffffffffffffffffffff166115b3611d6f565b73ffffffffffffffffffffffffffffffffffffffff1614611609576040517f08c379a000000000000000000000000000000000000000000000000000000000815260040161160090614f96565b60405180910390fd5b80601660026101000a81548160ff02191690831515021790555050565b7f000000000000000000000000000000000000000000000000000000000000000073ffffffffffffffffffffffffffffffffffffffff166351cff8d9826040518263ffffffff1660e01b815260040161167f9190614cf9565b600060405180830381600087803b15801561169957600080fd5b505af11580156116ad573d6000803e3d6000fd5b5050505050565b6000600b60008373ffffffffffffffffffffffffffffffffffffffff1673ffffffffffffffffffffffffffffffffffffffff16815260200190815260200160002060009054906101000a900460ff16806117b55750601460009054906101000a900473ffffffffffffffffffffffffffffffffffffffff1673ffffffffffffffffffffffffffffffffffffffff1663a230c524836040518263ffffffff1660e01b81526004016117649190614cde565b60206040518083038186803b15801561177c57600080fd5b505afa158015611790573d6000803e3d6000fd5b505050506040513d601f19601f820116820180604052508101906117b491906144f8565b5b9050919050565b601660029054906101000a900460ff1681565b6117d7612b33565b73ffffffffffffffffffffffffffffffffffffffff166117f5611d6f565b73ffffffffffffffffffffffffffffffffffffffff161461184b576040517f08c379a000000000000000000000000000000000000000000000000000000000815260040161184290614f96565b60405180910390fd5b6001601660036101000a81548160ff021916908315150217905550565b60115481565b61188983838360405180602001604052806000815250612220565b505050565b601660019054906101000a900460ff1681565b60006118ab6112be565b82106118ec576040517f08c379a00000000000000000000000000000000000000000000000000000000081526004016118e390615096565b60405180910390fd5b60088281548110611926577f4e487b7100000000000000000000000000000000000000000000000000000000600052603260045260246000fd5b90600052602060002001549050919050565b601660039054906101000a900460ff1681565b611953614018565b6040518060e00160405280600e548152602001600f5481526020016010548152602001611a0a81526020016119866112be565b815260200160008152602001600a815250905090565b6000806002600084815260200190815260200160002060009054906101000a900473ffffffffffffffffffffffffffffffffffffffff169050600073ffffffffffffffffffffffffffffffffffffffff168173ffffffffffffffffffffffffffffffffffffffff161415611a45576040517f08c379a0000000000000000000000000000000000000000000000000000000008152600401611a3c90614f16565b60405180910390fd5b80915050919050565b601660009054906101000a900460ff16611a9d576040517f08c379a0000000000000000000000000000000000000000000000000000000008152600401611a9490615016565b60405180910390fd5b601660019054906101000a900460ff1615611afb57611abb336116b4565b611afa576040517f08c379a0000000000000000000000000000000000000000000000000000000008152600401611af1906150b6565b60405180910390fd5b5b611b0481612f4c565b611b30600d60009054906101000a900473ffffffffffffffffffffffffffffffffffffffff163461315d565b50565b600e5481565b60008073ffffffffffffffffffffffffffffffffffffffff168273ffffffffffffffffffffffffffffffffffffffff161415611baa576040517f08c379a0000000000000000000000000000000000000000000000000000000008152600401611ba190614ef6565b60405180910390fd5b600360008373ffffffffffffffffffffffffffffffffffffffff1673ffffffffffffffffffffffffffffffffffffffff168152602001908152602001600020549050919050565b611bf9612b33565b73ffffffffffffffffffffffffffffffffffffffff16611c17611d6f565b73ffffffffffffffffffffffffffffffffffffffff1614611c6d576040517f08c379a0000000000000000000000000000000000000000000000000000000008152600401611c6490614f96565b60405180910390fd5b565b60606000611c7c83611b39565b905060008167ffffffffffffffff811115611cc0577f4e487b7100000000000000000000000000000000000000000000000000000000600052604160045260246000fd5b604051908082528060200260200182016040528015611cee5781602001602082028036833780820191505090505b50905060005b82811015611d64576000611d0886836114e8565b905080838381518110611d44577f4e487b7100000000000000000000000000000000000000000000000000000000600052603260045260246000fd5b602002602001018181525050508080611d5c90615484565b915050611cf4565b508092505050919050565b6000600a60009054906101000a900473ffffffffffffffffffffffffffffffffffffffff16905090565b611da1612b33565b73ffffffffffffffffffffffffffffffffffffffff16611dbf611d6f565b73ffffffffffffffffffffffffffffffffffffffff1614611e15576040517f08c379a0000000000000000000000000000000000000000000000000000000008152600401611e0c90614f96565b60405180910390fd5b8060159080519060200190611e2b929190614055565b5050565b606060018054611e3e90615421565b80601f0160208091040260200160405190810160405280929190818152602001828054611e6a90615421565b8015611eb75780601f10611e8c57610100808354040283529160200191611eb7565b820191906000526020600020905b815481529060010190602001808311611e9a57829003601f168201915b5050505050905090565b611ec9612b33565b73ffffffffffffffffffffffffffffffffffffffff16611ee7611d6f565b73ffffffffffffffffffffffffffffffffffffffff1614611f3d576040517f08c379a0000000000000000000000000000000000000000000000000000000008152600401611f3490614f96565b60405180910390fd5b80601260006101000a81548173ffffffffffffffffffffffffffffffffffffffff021916908373ffffffffffffffffffffffffffffffffffffffff16021790555050565b600b6020528060005260406000206000915054906101000a900460ff1681565b601660009054906101000a900460ff16611ff0576040517f08c379a0000000000000000000000000000000000000000000000000000000008152600401611fe790615016565b60405180910390fd5b601660019054906101000a900460ff161561204e5761200e336116b4565b61204d576040517f08c379a0000000000000000000000000000000000000000000000000000000008152600401612044906150b6565b60405180910390fd5b5b61205781612f4c565b6000620186a06013543461206b91906152cb565b612075919061529a565b9050600081346120859190615325565b9050601460009054906101000a900473ffffffffffffffffffffffffffffffffffffffff1673ffffffffffffffffffffffffffffffffffffffff16634065da638373454cfaa623a629cc0b4017aeb85d54c42e91479d6040518363ffffffff1660e01b81526004016120f79190614cde565b6000604051808303818588803b15801561211057600080fd5b505af1158015612124573d6000803e3d6000fd5b5050505050601460009054906101000a900473ffffffffffffffffffffffffffffffffffffffff1673ffffffffffffffffffffffffffffffffffffffff16634065da6382600d60009054906101000a900473ffffffffffffffffffffffffffffffffffffffff166040518363ffffffff1660e01b81526004016121a79190614cde565b6000604051808303818588803b1580156121c057600080fd5b505af11580156121d4573d6000803e3d6000fd5b5050505050505050565b6121f06121e9612b33565b83836131ed565b5050565b601260009054906101000a900473ffffffffffffffffffffffffffffffffffffffff1681565b60105481565b61223161222b612b33565b83612c12565b612270576040517f08c379a000000000000000000000000000000000000000000000000000000000815260040161226790615056565b60405180910390fd5b61227c8484848461335a565b50505050565b6000801515601660009054906101000a900460ff16151514156122a85760009050612303565b60011515601660019054906101000a900460ff1615151480156122d75750600015156122d3836116b4565b1515145b156122e55760009050612303565b611a0a6122f06112be565b106122fe5760009050612303565b600a90505b919050565b600d60009054906101000a900473ffffffffffffffffffffffffffffffffffffffff1681565b606060011515601660039054906101000a900460ff1615151461237357601560405160200161235d9190614cbc565b604051602081830303815290604052905061239e565b61237c826133b6565b60405160200161238c9190614c81565b60405160208183030381529060405290505b919050565b601660009054906101000a900460ff1681565b6000611a0a905090565b60007f000000000000000000000000000000000000000000000000000000000000000073ffffffffffffffffffffffffffffffffffffffff1663e3a9db1a836040518263ffffffff1660e01b815260040161241b9190614cde565b60206040518083038186803b15801561243357600080fd5b505afa158015612447573d6000803e3d6000fd5b505050506040513d601f19601f8201168201806040525081019061246b91906145dd565b9050919050565b6000600560008473ffffffffffffffffffffffffffffffffffffffff1673ffffffffffffffffffffffffffffffffffffffff16815260200190815260200160002060008373ffffffffffffffffffffffffffffffffffffffff1673ffffffffffffffffffffffffffffffffffffffff16815260200190815260200160002060009054906101000a900460ff16905092915050565b61250e612b33565b73ffffffffffffffffffffffffffffffffffffffff1661252c611d6f565b73ffffffffffffffffffffffffffffffffffffffff1614612582576040517f08c379a000000000000000000000000000000000000000000000000000000000815260040161257990614f96565b60405180910390fd5b80601660016101000a81548160ff02191690831515021790555050565b6125a7612b33565b73ffffffffffffffffffffffffffffffffffffffff166125c5611d6f565b73ffffffffffffffffffffffffffffffffffffffff161461261b576040517f08c379a000000000000000000000000000000000000000000000000000000000815260040161261290614f96565b60405180910390fd5b60005b828290508110156126e1576001600b6000858585818110612668577f4e487b7100000000000000000000000000000000000000000000000000000000600052603260045260246000fd5b905060200201602081019061267d91906142ba565b73ffffffffffffffffffffffffffffffffffffffff1673ffffffffffffffffffffffffffffffffffffffff16815260200190815260200160002060006101000a81548160ff02191690831515021790555080806126d990615484565b91505061261e565b505050565b6126ee612b33565b73ffffffffffffffffffffffffffffffffffffffff1661270c611d6f565b73ffffffffffffffffffffffffffffffffffffffff1614612762576040517f08c379a000000000000000000000000000000000000000000000000000000000815260040161275990614f96565b60405180910390fd5b600073ffffffffffffffffffffffffffffffffffffffff168173ffffffffffffffffffffffffffffffffffffffff1614156127d2576040517f08c379a00000000000000000000000000000000000000000000000000000000081526004016127c990614e36565b60405180910390fd5b6127db8161345d565b50565b6127e6612b33565b73ffffffffffffffffffffffffffffffffffffffff16612804611d6f565b73ffffffffffffffffffffffffffffffffffffffff161461285a576040517f08c379a000000000000000000000000000000000000000000000000000000000815260040161285190614f96565b60405180910390fd5b8082620186a061286a91906152cb565b612874919061529a565b6013819055505050565b612886612b33565b73ffffffffffffffffffffffffffffffffffffffff166128a4611d6f565b73ffffffffffffffffffffffffffffffffffffffff16146128fa576040517f08c379a00000000000000000000000000000000000000000000000000000000081526004016128f190614f96565b60405180910390fd5b80601660006101000a81548160ff02191690831515021790555050565b600c6020528060005260406000206000915090505481565b612937612b33565b73ffffffffffffffffffffffffffffffffffffffff16612955611d6f565b73ffffffffffffffffffffffffffffffffffffffff16146129ab576040517f08c379a00000000000000000000000000000000000000000000000000000000081526004016129a290614f96565b60405180910390fd5b83600e8190555082600f81905550816010819055508060118190555050505050565b600080823b905060008111915050919050565b505050565b60007f80ac58cd000000000000000000000000000000000000000000000000000000007bffffffffffffffffffffffffffffffffffffffffffffffffffffffff1916827bffffffffffffffffffffffffffffffffffffffffffffffffffffffff19161480612ab057507f5b5e139f000000000000000000000000000000000000000000000000000000007bffffffffffffffffffffffffffffffffffffffffffffffffffffffff1916827bffffffffffffffffffffffffffffffffffffffffffffffffffffffff1916145b80612ac05750612abf82613523565b5b9050919050565b60008073ffffffffffffffffffffffffffffffffffffffff166002600084815260200190815260200160002060009054906101000a900473ffffffffffffffffffffffffffffffffffffffff1673ffffffffffffffffffffffffffffffffffffffff1614159050919050565b600033905090565b816004600083815260200190815260200160002060006101000a81548173ffffffffffffffffffffffffffffffffffffffff021916908373ffffffffffffffffffffffffffffffffffffffff160217905550808273ffffffffffffffffffffffffffffffffffffffff16612bae8361199c565b73ffffffffffffffffffffffffffffffffffffffff167f8c5be1e5ebec7d5bd14f71427d1e84f3dd0314c0f7b2291e5b200ac8c7c3b92560405160405180910390a45050565b612c0e82826040518060200160405280600081525061358d565b5050565b6000612c1d82612ac7565b612c5c576040517f08c379a0000000000000000000000000000000000000000000000000000000008152600401612c5390614eb6565b60405180910390fd5b6000612c678361199c565b90508073ffffffffffffffffffffffffffffffffffffffff168473ffffffffffffffffffffffffffffffffffffffff161480612cd657508373ffffffffffffffffffffffffffffffffffffffff16612cbe84610db8565b73ffffffffffffffffffffffffffffffffffffffff16145b80612ce75750612ce68185612472565b5b91505092915050565b8273ffffffffffffffffffffffffffffffffffffffff16612d108261199c565b73ffffffffffffffffffffffffffffffffffffffff1614612d66576040517f08c379a0000000000000000000000000000000000000000000000000000000008152600401612d5d90614fb6565b60405180910390fd5b600073ffffffffffffffffffffffffffffffffffffffff168273ffffffffffffffffffffffffffffffffffffffff161415612dd6576040517f08c379a0000000000000000000000000000000000000000000000000000000008152600401612dcd90614e76565b60405180910390fd5b612de18383836135e8565b612dec600082612b3b565b6001600360008573ffffffffffffffffffffffffffffffffffffffff1673ffffffffffffffffffffffffffffffffffffffff1681526020019081526020016000206000828254612e3c9190615325565b925050819055506001600360008473ffffffffffffffffffffffffffffffffffffffff1673ffffffffffffffffffffffffffffffffffffffff1681526020019081526020016000206000828254612e939190615244565b92505081905550816002600083815260200190815260200160002060006101000a81548173ffffffffffffffffffffffffffffffffffffffff021916908373ffffffffffffffffffffffffffffffffffffffff160217905550808273ffffffffffffffffffffffffffffffffffffffff168473ffffffffffffffffffffffffffffffffffffffff167fddf252ad1be2c89b69c2b068fc378daa952ba7f163c4a11628f55a4df523b3ef60405160405180910390a4505050565b600a811115612f90576040517f08c379a0000000000000000000000000000000000000000000000000000000008152600401612f8790615076565b60405180910390fd5b60008111612fd3576040517f08c379a0000000000000000000000000000000000000000000000000000000008152600401612fca90615076565b60405180910390fd5b611a0a81612fdf6112be565b612fe99190615244565b111561302a576040517f08c379a000000000000000000000000000000000000000000000000000000000815260040161302190614f36565b60405180910390fd5b60008161303633611478565b61304091906152cb565b9050348114806130825750613053611d6f565b73ffffffffffffffffffffffffffffffffffffffff163373ffffffffffffffffffffffffffffffffffffffff16145b6130c1576040517f08c379a00000000000000000000000000000000000000000000000000000000081526004016130b8906150d6565b60405180910390fd5b60005b8281101561310257600060016130d86112be565b6130e29190615244565b90506130ee3382612bf4565b5080806130fa90615484565b9150506130c4565b5081600c60003373ffffffffffffffffffffffffffffffffffffffff1673ffffffffffffffffffffffffffffffffffffffff16815260200190815260200160002060008282546131529190615244565b925050819055505050565b7f000000000000000000000000000000000000000000000000000000000000000073ffffffffffffffffffffffffffffffffffffffff1663f340fa0182846040518363ffffffff1660e01b81526004016131b79190614cde565b6000604051808303818588803b1580156131d057600080fd5b505af11580156131e4573d6000803e3d6000fd5b50505050505050565b8173ffffffffffffffffffffffffffffffffffffffff168373ffffffffffffffffffffffffffffffffffffffff16141561325c576040517f08c379a000000000000000000000000000000000000000000000000000000000815260040161325390614e96565b60405180910390fd5b80600560008573ffffffffffffffffffffffffffffffffffffffff1673ffffffffffffffffffffffffffffffffffffffff16815260200190815260200160002060008473ffffffffffffffffffffffffffffffffffffffff1673ffffffffffffffffffffffffffffffffffffffff16815260200190815260200160002060006101000a81548160ff0219169083151502179055508173ffffffffffffffffffffffffffffffffffffffff168373ffffffffffffffffffffffffffffffffffffffff167f17307eab39ab6107e8899845ad3d59bd9653f200f220920489ca2b5937696c318360405161334d9190614db9565b60405180910390a3505050565b613365848484612cf0565b613371848484846136fc565b6133b0576040517f08c379a00000000000000000000000000000000000000000000000000000000081526004016133a790614e16565b60405180910390fd5b50505050565b60606133c182612ac7565b613400576040517f08c379a00000000000000000000000000000000000000000000000000000000081526004016133f790614fd6565b60405180910390fd5b600061340a613893565b9050600081511161342a5760405180602001604052806000815250613455565b8061343484613925565b604051602001613445929190614c98565b6040516020818303038152906040525b915050919050565b6000600a60009054906101000a900473ffffffffffffffffffffffffffffffffffffffff16905081600a60006101000a81548173ffffffffffffffffffffffffffffffffffffffff021916908373ffffffffffffffffffffffffffffffffffffffff1602179055508173ffffffffffffffffffffffffffffffffffffffff168173ffffffffffffffffffffffffffffffffffffffff167f8be0079c531659141344cd1fd0a4f28419497f9722a3daafe3b4186f6b6457e060405160405180910390a35050565b60007f01ffc9a7000000000000000000000000000000000000000000000000000000007bffffffffffffffffffffffffffffffffffffffffffffffffffffffff1916827bffffffffffffffffffffffffffffffffffffffffffffffffffffffff1916149050919050565b6135978383613ad2565b6135a460008484846136fc565b6135e3576040517f08c379a00000000000000000000000000000000000000000000000000000000081526004016135da90614e16565b60405180910390fd5b505050565b6135f38383836129e0565b600073ffffffffffffffffffffffffffffffffffffffff168373ffffffffffffffffffffffffffffffffffffffff1614156136365761363181613ca0565b613675565b8173ffffffffffffffffffffffffffffffffffffffff168373ffffffffffffffffffffffffffffffffffffffff1614613674576136738382613ce9565b5b5b600073ffffffffffffffffffffffffffffffffffffffff168273ffffffffffffffffffffffffffffffffffffffff1614156136b8576136b381613e56565b6136f7565b8273ffffffffffffffffffffffffffffffffffffffff168273ffffffffffffffffffffffffffffffffffffffff16146136f6576136f58282613f99565b5b5b505050565b600061371d8473ffffffffffffffffffffffffffffffffffffffff166129cd565b15613886578373ffffffffffffffffffffffffffffffffffffffff1663150b7a02613746612b33565b8786866040518563ffffffff1660e01b81526004016137689493929190614d4b565b602060405180830381600087803b15801561378257600080fd5b505af19250505080156137b357506040513d601f19601f820116820180604052508101906137b0919061454a565b60015b613836573d80600081146137e3576040519150601f19603f3d011682016040523d82523d6000602084013e6137e8565b606091505b5060008151141561382e576040517f08c379a000000000000000000000000000000000000000000000000000000000815260040161382590614e16565b60405180910390fd5b805181602001fd5b63150b7a0260e01b7bffffffffffffffffffffffffffffffffffffffffffffffffffffffff1916817bffffffffffffffffffffffffffffffffffffffffffffffffffffffff19161491505061388b565b600190505b949350505050565b6060601580546138a290615421565b80601f01602080910402602001604051908101604052809291908181526020018280546138ce90615421565b801561391b5780601f106138f05761010080835404028352916020019161391b565b820191906000526020600020905b8154815290600101906020018083116138fe57829003601f168201915b5050505050905090565b6060600082141561396d576040518060400160405280600181526020017f30000000000000000000000000000000000000000000000000000000000000008152509050613acd565b600082905060005b6000821461399f57808061398890615484565b915050600a82613998919061529a565b9150613975565b60008167ffffffffffffffff8111156139e1577f4e487b7100000000000000000000000000000000000000000000000000000000600052604160045260246000fd5b6040519080825280601f01601f191660200182016040528015613a135781602001600182028036833780820191505090505b5090505b60008514613ac657600182613a2c9190615325565b9150600a85613a3b91906154cd565b6030613a479190615244565b60f81b818381518110613a83577f4e487b7100000000000000000000000000000000000000000000000000000000600052603260045260246000fd5b60200101907effffffffffffffffffffffffffffffffffffffffffffffffffffffffffffff1916908160001a905350600a85613abf919061529a565b9450613a17565b8093505050505b919050565b600073ffffffffffffffffffffffffffffffffffffffff168273ffffffffffffffffffffffffffffffffffffffff161415613b42576040517f08c379a0000000000000000000000000000000000000000000000000000000008152600401613b3990614f56565b60405180910390fd5b613b4b81612ac7565b15613b8b576040517f08c379a0000000000000000000000000000000000000000000000000000000008152600401613b8290614e56565b60405180910390fd5b613b97600083836135e8565b6001600360008473ffffffffffffffffffffffffffffffffffffffff1673ffffffffffffffffffffffffffffffffffffffff1681526020019081526020016000206000828254613be79190615244565b92505081905550816002600083815260200190815260200160002060006101000a81548173ffffffffffffffffffffffffffffffffffffffff021916908373ffffffffffffffffffffffffffffffffffffffff160217905550808273ffffffffffffffffffffffffffffffffffffffff16600073ffffffffffffffffffffffffffffffffffffffff167fddf252ad1be2c89b69c2b068fc378daa952ba7f163c4a11628f55a4df523b3ef60405160405180910390a45050565b6008805490506009600083815260200190815260200160002081905550600881908060018154018082558091505060019003906000526020600020016000909190919091505550565b60006001613cf684611b39565b613d009190615325565b9050600060076000848152602001908152602001600020549050818114613de5576000600660008673ffffffffffffffffffffffffffffffffffffffff1673ffffffffffffffffffffffffffffffffffffffff168152602001908152602001600020600084815260200190815260200160002054905080600660008773ffffffffffffffffffffffffffffffffffffffff1673ffffffffffffffffffffffffffffffffffffffff168152602001908152602001600020600084815260200190815260200160002081905550816007600083815260200190815260200160002081905550505b6007600084815260200190815260200160002060009055600660008573ffffffffffffffffffffffffffffffffffffffff1673ffffffffffffffffffffffffffffffffffffffff16815260200190815260200160002060008381526020019081526020016000206000905550505050565b60006001600880549050613e6a9190615325565b9050600060096000848152602001908152602001600020549050600060088381548110613ec0577f4e487b7100000000000000000000000000000000000000000000000000000000600052603260045260246000fd5b906000526020600020015490508060088381548110613f08577f4e487b7100000000000000000000000000000000000000000000000000000000600052603260045260246000fd5b906000526020600020018190555081600960008381526020019081526020016000208190555060096000858152602001908152602001600020600090556008805480613f7d577f4e487b7100000000000000000000000000000000000000000000000000000000600052603160045260246000fd5b6001900381819060005260206000200160009055905550505050565b6000613fa483611b39565b905081600660008573ffffffffffffffffffffffffffffffffffffffff1673ffffffffffffffffffffffffffffffffffffffff168152602001908152602001600020600083815260200190815260200160002081905550806007600084815260200190815260200160002081905550505050565b6040518060e00160405280600081526020016000815260200160008152602001600081526020016000815260200160008152602001600081525090565b82805461406190615421565b90600052602060002090601f01602090048101928261408357600085556140ca565b82601f1061409c57805160ff19168380011785556140ca565b828001600101855582156140ca579182015b828111156140c95782518255916020019190600101906140ae565b5b5090506140d791906140db565b5090565b5b808211156140f45760008160009055506001016140dc565b5090565b600061410b61410684615151565b61512c565b90508281526020810184848401111561412357600080fd5b61412e8482856153df565b509392505050565b600061414961414484615182565b61512c565b90508281526020810184848401111561416157600080fd5b61416c8482856153df565b509392505050565b60008135905061418381615be0565b92915050565b60008135905061419881615bf7565b92915050565b60008083601f8401126141b057600080fd5b8235905067ffffffffffffffff8111156141c957600080fd5b6020830191508360208202830111156141e157600080fd5b9250929050565b6000813590506141f781615c0e565b92915050565b60008151905061420c81615c0e565b92915050565b60008135905061422181615c25565b92915050565b60008151905061423681615c25565b92915050565b600082601f83011261424d57600080fd5b813561425d8482602086016140f8565b91505092915050565b600082601f83011261427757600080fd5b8135614287848260208601614136565b91505092915050565b60008135905061429f81615c3c565b92915050565b6000815190506142b481615c3c565b92915050565b6000602082840312156142cc57600080fd5b60006142da84828501614174565b91505092915050565b6000602082840312156142f557600080fd5b600061430384828501614189565b91505092915050565b6000806040838503121561431f57600080fd5b600061432d85828601614174565b925050602061433e85828601614174565b9150509250929050565b60008060006060848603121561435d57600080fd5b600061436b86828701614174565b935050602061437c86828701614174565b925050604061438d86828701614290565b9150509250925092565b600080600080608085870312156143ad57600080fd5b60006143bb87828801614174565b94505060206143cc87828801614174565b93505060406143dd87828801614290565b925050606085013567ffffffffffffffff8111156143fa57600080fd5b6144068782880161423c565b91505092959194509250565b6000806040838503121561442557600080fd5b600061443385828601614174565b9250506020614444858286016141e8565b9150509250929050565b6000806040838503121561446157600080fd5b600061446f85828601614174565b925050602061448085828601614290565b9150509250929050565b6000806020838503121561449d57600080fd5b600083013567ffffffffffffffff8111156144b757600080fd5b6144c38582860161419e565b92509250509250929050565b6000602082840312156144e157600080fd5b60006144ef848285016141e8565b91505092915050565b60006020828403121561450a57600080fd5b6000614518848285016141fd565b91505092915050565b60006020828403121561453357600080fd5b600061454184828501614212565b91505092915050565b60006020828403121561455c57600080fd5b600061456a84828501614227565b91505092915050565b60006020828403121561458557600080fd5b600082013567ffffffffffffffff81111561459f57600080fd5b6145ab84828501614266565b91505092915050565b6000602082840312156145c657600080fd5b60006145d484828501614290565b91505092915050565b6000602082840312156145ef57600080fd5b60006145fd848285016142a5565b91505092915050565b6000806040838503121561461957600080fd5b600061462785828601614290565b925050602061463885828601614290565b9150509250929050565b6000806000806080858703121561465857600080fd5b600061466687828801614290565b945050602061467787828801614290565b935050604061468887828801614290565b925050606061469987828801614290565b91505092959194509250565b60006146b18383614c63565b60208301905092915050565b6146c68161536b565b82525050565b6146d581615359565b82525050565b60006146e6826151d8565b6146f08185615206565b93506146fb836151b3565b8060005b8381101561472c57815161471388826146a5565b975061471e836151f9565b9250506001810190506146ff565b5085935050505092915050565b6147428161537d565b82525050565b6000614753826151e3565b61475d8185615217565b935061476d8185602086016153ee565b614776816155ba565b840191505092915050565b600061478c826151ee565b6147968185615228565b93506147a68185602086016153ee565b6147af816155ba565b840191505092915050565b60006147c5826151ee565b6147cf8185615239565b93506147df8185602086016153ee565b80840191505092915050565b600081546147f881615421565b6148028186615239565b9450600182166000811461481d576001811461482e57614861565b60ff19831686528186019350614861565b614837856151c3565b60005b838110156148595781548189015260018201915060208101905061483a565b838801955050505b50505092915050565b6000614877602b83615228565b9150614882826155cb565b604082019050919050565b600061489a603283615228565b91506148a58261561a565b604082019050919050565b60006148bd602683615228565b91506148c882615669565b604082019050919050565b60006148e0601c83615228565b91506148eb826156b8565b602082019050919050565b6000614903602483615228565b915061490e826156e1565b604082019050919050565b6000614926601983615228565b915061493182615730565b602082019050919050565b6000614949602c83615228565b915061495482615759565b604082019050919050565b600061496c603883615228565b9150614977826157a8565b604082019050919050565b600061498f602a83615228565b915061499a826157f7565b604082019050919050565b60006149b2602983615228565b91506149bd82615846565b604082019050919050565b60006149d5601883615228565b91506149e082615895565b602082019050919050565b60006149f8602083615228565b9150614a03826158be565b602082019050919050565b6000614a1b602c83615228565b9150614a26826158e7565b604082019050919050565b6000614a3e602083615228565b9150614a4982615936565b602082019050919050565b6000614a61602983615228565b9150614a6c8261595f565b604082019050919050565b6000614a84602f83615228565b9150614a8f826159ae565b604082019050919050565b6000614aa7601f83615228565b9150614ab2826159fd565b602082019050919050565b6000614aca600b83615239565b9150614ad582615a26565b600b82019050919050565b6000614aed600d83615228565b9150614af882615a4f565b602082019050919050565b6000614b10602183615228565b9150614b1b82615a78565b604082019050919050565b6000614b33603183615228565b9150614b3e82615ac7565b604082019050919050565b6000614b56601383615228565b9150614b6182615b16565b602082019050919050565b6000614b79602c83615228565b9150614b8482615b3f565b604082019050919050565b6000614b9c600f83615228565b9150614ba782615b8e565b602082019050919050565b6000614bbf601183615228565b9150614bca82615bb7565b602082019050919050565b60e082016000820151614beb6000850182614c63565b506020820151614bfe6020850182614c63565b506040820151614c116040850182614c63565b506060820151614c246060850182614c63565b506080820151614c376080850182614c63565b5060a0820151614c4a60a0850182614c63565b5060c0820151614c5d60c0850182614c63565b50505050565b614c6c816153d5565b82525050565b614c7b816153d5565b82525050565b6000614c8d82846147ba565b915081905092915050565b6000614ca482856147ba565b9150614cb082846147ba565b91508190509392505050565b6000614cc882846147eb565b9150614cd382614abd565b915081905092915050565b6000602082019050614cf360008301846146cc565b92915050565b6000602082019050614d0e60008301846146bd565b92915050565b6000606082019050614d2960008301866146cc565b614d3660208301856146cc565b614d436040830184614c72565b949350505050565b6000608082019050614d6060008301876146cc565b614d6d60208301866146cc565b614d7a6040830185614c72565b8181036060830152614d8c8184614748565b905095945050505050565b60006020820190508181036000830152614db181846146db565b905092915050565b6000602082019050614dce6000830184614739565b92915050565b60006020820190508181036000830152614dee8184614781565b905092915050565b60006020820190508181036000830152614e0f8161486a565b9050919050565b60006020820190508181036000830152614e2f8161488d565b9050919050565b60006020820190508181036000830152614e4f816148b0565b9050919050565b60006020820190508181036000830152614e6f816148d3565b9050919050565b60006020820190508181036000830152614e8f816148f6565b9050919050565b60006020820190508181036000830152614eaf81614919565b9050919050565b60006020820190508181036000830152614ecf8161493c565b9050919050565b60006020820190508181036000830152614eef8161495f565b9050919050565b60006020820190508181036000830152614f0f81614982565b9050919050565b60006020820190508181036000830152614f2f816149a5565b9050919050565b60006020820190508181036000830152614f4f816149c8565b9050919050565b60006020820190508181036000830152614f6f816149eb565b9050919050565b60006020820190508181036000830152614f8f81614a0e565b9050919050565b60006020820190508181036000830152614faf81614a31565b9050919050565b60006020820190508181036000830152614fcf81614a54565b9050919050565b60006020820190508181036000830152614fef81614a77565b9050919050565b6000602082019050818103600083015261500f81614a9a565b9050919050565b6000602082019050818103600083015261502f81614ae0565b9050919050565b6000602082019050818103600083015261504f81614b03565b9050919050565b6000602082019050818103600083015261506f81614b26565b9050919050565b6000602082019050818103600083015261508f81614b49565b9050919050565b600060208201905081810360008301526150af81614b6c565b9050919050565b600060208201905081810360008301526150cf81614b8f565b9050919050565b600060208201905081810360008301526150ef81614bb2565b9050919050565b600060e08201905061510b6000830184614bd5565b92915050565b60006020820190506151266000830184614c72565b92915050565b6000615136615147565b90506151428282615453565b919050565b6000604051905090565b600067ffffffffffffffff82111561516c5761516b61558b565b5b615175826155ba565b9050602081019050919050565b600067ffffffffffffffff82111561519d5761519c61558b565b5b6151a6826155ba565b9050602081019050919050565b6000819050602082019050919050565b60008190508160005260206000209050919050565b600081519050919050565b600081519050919050565b600081519050919050565b6000602082019050919050565b600082825260208201905092915050565b600082825260208201905092915050565b600082825260208201905092915050565b600081905092915050565b600061524f826153d5565b915061525a836153d5565b9250827fffffffffffffffffffffffffffffffffffffffffffffffffffffffffffffffff0382111561528f5761528e6154fe565b5b828201905092915050565b60006152a5826153d5565b91506152b0836153d5565b9250826152c0576152bf61552d565b5b828204905092915050565b60006152d6826153d5565b91506152e1836153d5565b9250817fffffffffffffffffffffffffffffffffffffffffffffffffffffffffffffffff048311821515161561531a576153196154fe565b5b828202905092915050565b6000615330826153d5565b915061533b836153d5565b92508282101561534e5761534d6154fe565b5b828203905092915050565b6000615364826153b5565b9050919050565b6000615376826153b5565b9050919050565b60008115159050919050565b60007fffffffff0000000000000000000000000000000000000000000000000000000082169050919050565b600073ffffffffffffffffffffffffffffffffffffffff82169050919050565b6000819050919050565b82818337600083830152505050565b60005b8381101561540c5780820151818401526020810190506153f1565b8381111561541b576000848401525b50505050565b6000600282049050600182168061543957607f821691505b6020821081141561544d5761544c61555c565b5b50919050565b61545c826155ba565b810181811067ffffffffffffffff8211171561547b5761547a61558b565b5b80604052505050565b600061548f826153d5565b91507fffffffffffffffffffffffffffffffffffffffffffffffffffffffffffffffff8214156154c2576154c16154fe565b5b600182019050919050565b60006154d8826153d5565b91506154e3836153d5565b9250826154f3576154f261552d565b5b828206905092915050565b7f4e487b7100000000000000000000000000000000000000000000000000000000600052601160045260246000fd5b7f4e487b7100000000000000000000000000000000000000000000000000000000600052601260045260246000fd5b7f4e487b7100000000000000000000000000000000000000000000000000000000600052602260045260246000fd5b7f4e487b7100000000000000000000000000000000000000000000000000000000600052604160045260246000fd5b6000601f19601f8301169050919050565b7f455243373231456e756d657261626c653a206f776e657220696e646578206f7560008201527f74206f6620626f756e6473000000000000000000000000000000000000000000602082015250565b7f4552433732313a207472616e7366657220746f206e6f6e20455243373231526560008201527f63656976657220696d706c656d656e7465720000000000000000000000000000602082015250565b7f4f776e61626c653a206e6577206f776e657220697320746865207a65726f206160008201527f6464726573730000000000000000000000000000000000000000000000000000602082015250565b7f4552433732313a20746f6b656e20616c7265616479206d696e74656400000000600082015250565b7f4552433732313a207472616e7366657220746f20746865207a65726f2061646460008201527f7265737300000000000000000000000000000000000000000000000000000000602082015250565b7f4552433732313a20617070726f766520746f2063616c6c657200000000000000600082015250565b7f4552433732313a206f70657261746f7220717565727920666f72206e6f6e657860008201527f697374656e7420746f6b656e0000000000000000000000000000000000000000602082015250565b7f4552433732313a20617070726f76652063616c6c6572206973206e6f74206f7760008201527f6e6572206e6f7220617070726f76656420666f7220616c6c0000000000000000602082015250565b7f4552433732313a2062616c616e636520717565727920666f7220746865207a6560008201527f726f206164647265737300000000000000000000000000000000000000000000602082015250565b7f4552433732313a206f776e657220717565727920666f72206e6f6e657869737460008201527f656e7420746f6b656e0000000000000000000000000000000000000000000000602082015250565b7f457863656564696e67204d6178204d696e7420436f756e740000000000000000600082015250565b7f4552433732313a206d696e7420746f20746865207a65726f2061646472657373600082015250565b7f4552433732313a20617070726f76656420717565727920666f72206e6f6e657860008201527f697374656e7420746f6b656e0000000000000000000000000000000000000000602082015250565b7f4f776e61626c653a2063616c6c6572206973206e6f7420746865206f776e6572600082015250565b7f4552433732313a207472616e73666572206f6620746f6b656e2074686174206960008201527f73206e6f74206f776e0000000000000000000000000000000000000000000000602082015250565b7f4552433732314d657461646174613a2055524920717565727920666f72206e6f60008201527f6e6578697374656e7420746f6b656e0000000000000000000000000000000000602082015250565b7f455243323020546f6b656e204d696e74696e672069732064697361626c656400600082015250565b7f6e6f7452657665616c6564000000000000000000000000000000000000000000600082015250565b7f4d696e742044697361626c656400000000000000000000000000000000000000600082015250565b7f4552433732313a20617070726f76616c20746f2063757272656e74206f776e6560008201527f7200000000000000000000000000000000000000000000000000000000000000602082015250565b7f4552433732313a207472616e736665722063616c6c6572206973206e6f74206f60008201527f776e6572206e6f7220617070726f766564000000000000000000000000000000602082015250565b7f496e76616c6964206d696e7420616d6f756e7400000000000000000000000000600082015250565b7f455243373231456e756d657261626c653a20676c6f62616c20696e646578206f60008201527f7574206f6620626f756e64730000000000000000000000000000000000000000602082015250565b7f4e6f742057686974656c69737465640000000000000000000000000000000000600082015250565b7f496e636f7272656374205061796d656e74000000000000000000000000000000600082015250565b615be981615359565b8114615bf457600080fd5b50565b615c008161536b565b8114615c0b57600080fd5b50565b615c178161537d565b8114615c2257600080fd5b50565b615c2e81615389565b8114615c3957600080fd5b50565b615c45816153d5565b8114615c5057600080fd5b5056fea26469706673582212200dc7c231c5300991eba3a44631ba65ea08d114d1ec1ff0bf9e013d9ae84da55c64736f6c63430008040033608060405234801561001057600080fd5b5061002d61002261003260201b60201c565b61003a60201b60201c565b6100fe565b600033905090565b60008060009054906101000a900473ffffffffffffffffffffffffffffffffffffffff169050816000806101000a81548173ffffffffffffffffffffffffffffffffffffffff021916908373ffffffffffffffffffffffffffffffffffffffff1602179055508173ffffffffffffffffffffffffffffffffffffffff168173ffffffffffffffffffffffffffffffffffffffff167f8be0079c531659141344cd1fd0a4f28419497f9722a3daafe3b4186f6b6457e060405160405180910390a35050565b610bfc8061010d6000396000f3fe6080604052600436106100555760003560e01c806351cff8d91461005a578063715018a6146100835780638da5cb5b1461009a578063e3a9db1a146100c5578063f2fde38b14610102578063f340fa011461012b575b600080fd5b34801561006657600080fd5b50610081600480360381019061007c91906107f5565b610147565b005b34801561008f57600080fd5b506100986102c7565b005b3480156100a657600080fd5b506100af61034f565b6040516100bc9190610900565b60405180910390f35b3480156100d157600080fd5b506100ec60048036038101906100e791906107cc565b610378565b6040516100f9919061099b565b60405180910390f35b34801561010e57600080fd5b50610129600480360381019061012491906107cc565b6103c1565b005b610145600480360381019061014091906107cc565b6104b9565b005b61014f6105e2565b73ffffffffffffffffffffffffffffffffffffffff1661016d61034f565b73ffffffffffffffffffffffffffffffffffffffff16146101c3576040517f08c379a00000000000000000000000000000000000000000000000000000000081526004016101ba9061097b565b60405180910390fd5b6000600160008373ffffffffffffffffffffffffffffffffffffffff1673ffffffffffffffffffffffffffffffffffffffff1681526020019081526020016000205490506000600160008473ffffffffffffffffffffffffffffffffffffffff1673ffffffffffffffffffffffffffffffffffffffff16815260200190815260200160002081905550610275818373ffffffffffffffffffffffffffffffffffffffff166105ea90919063ffffffff16565b8173ffffffffffffffffffffffffffffffffffffffff167f7084f5476618d8e60b11ef0d7d3f06914655adb8793e28ff7f018d4c76d505d5826040516102bb919061099b565b60405180910390a25050565b6102cf6105e2565b73ffffffffffffffffffffffffffffffffffffffff166102ed61034f565b73ffffffffffffffffffffffffffffffffffffffff1614610343576040517f08c379a000000000000000000000000000000000000000000000000000000000815260040161033a9061097b565b60405180910390fd5b61034d60006106de565b565b60008060009054906101000a900473ffffffffffffffffffffffffffffffffffffffff16905090565b6000600160008373ffffffffffffffffffffffffffffffffffffffff1673ffffffffffffffffffffffffffffffffffffffff168152602001908152602001600020549050919050565b6103c96105e2565b73ffffffffffffffffffffffffffffffffffffffff166103e761034f565b73ffffffffffffffffffffffffffffffffffffffff161461043d576040517f08c379a00000000000000000000000000000000000000000000000000000000081526004016104349061097b565b60405180910390fd5b600073ffffffffffffffffffffffffffffffffffffffff168173ffffffffffffffffffffffffffffffffffffffff1614156104ad576040517f08c379a00000000000000000000000000000000000000000000000000000000081526004016104a49061091b565b60405180910390fd5b6104b6816106de565b50565b6104c16105e2565b73ffffffffffffffffffffffffffffffffffffffff166104df61034f565b73ffffffffffffffffffffffffffffffffffffffff1614610535576040517f08c379a000000000000000000000000000000000000000000000000000000000815260040161052c9061097b565b60405180910390fd5b600034905080600160008473ffffffffffffffffffffffffffffffffffffffff1673ffffffffffffffffffffffffffffffffffffffff168152602001908152602001600020600082825461058991906109d2565b925050819055508173ffffffffffffffffffffffffffffffffffffffff167f2da466a7b24304f47e87fa2e1e5a81b9831ce54fec19055ce277ca2f39ba42c4826040516105d6919061099b565b60405180910390a25050565b600033905090565b8047101561062d576040517f08c379a00000000000000000000000000000000000000000000000000000000081526004016106249061095b565b60405180910390fd5b60008273ffffffffffffffffffffffffffffffffffffffff1682604051610653906108eb565b60006040518083038185875af1925050503d8060008114610690576040519150601f19603f3d011682016040523d82523d6000602084013e610695565b606091505b50509050806106d9576040517f08c379a00000000000000000000000000000000000000000000000000000000081526004016106d09061093b565b60405180910390fd5b505050565b60008060009054906101000a900473ffffffffffffffffffffffffffffffffffffffff169050816000806101000a81548173ffffffffffffffffffffffffffffffffffffffff021916908373ffffffffffffffffffffffffffffffffffffffff1602179055508173ffffffffffffffffffffffffffffffffffffffff168173ffffffffffffffffffffffffffffffffffffffff167f8be0079c531659141344cd1fd0a4f28419497f9722a3daafe3b4186f6b6457e060405160405180910390a35050565b6000813590506107b181610b98565b92915050565b6000813590506107c681610baf565b92915050565b6000602082840312156107de57600080fd5b60006107ec848285016107a2565b91505092915050565b60006020828403121561080757600080fd5b6000610815848285016107b7565b91505092915050565b61082781610a28565b82525050565b600061083a6026836109c1565b915061084582610aa5565b604082019050919050565b600061085d603a836109c1565b915061086882610af4565b604082019050919050565b6000610880601d836109c1565b915061088b82610b43565b602082019050919050565b60006108a36020836109c1565b91506108ae82610b6c565b602082019050919050565b60006108c66000836109b6565b91506108d182610b95565b600082019050919050565b6108e581610a6c565b82525050565b60006108f6826108b9565b9150819050919050565b6000602082019050610915600083018461081e565b92915050565b600060208201905081810360008301526109348161082d565b9050919050565b6000602082019050818103600083015261095481610850565b9050919050565b6000602082019050818103600083015261097481610873565b9050919050565b6000602082019050818103600083015261099481610896565b9050919050565b60006020820190506109b060008301846108dc565b92915050565b600081905092915050565b600082825260208201905092915050565b60006109dd82610a6c565b91506109e883610a6c565b9250827fffffffffffffffffffffffffffffffffffffffffffffffffffffffffffffffff03821115610a1d57610a1c610a76565b5b828201905092915050565b6000610a3382610a4c565b9050919050565b6000610a4582610a4c565b9050919050565b600073ffffffffffffffffffffffffffffffffffffffff82169050919050565b6000819050919050565b7f4e487b7100000000000000000000000000000000000000000000000000000000600052601160045260246000fd5b7f4f776e61626c653a206e6577206f776e657220697320746865207a65726f206160008201527f6464726573730000000000000000000000000000000000000000000000000000602082015250565b7f416464726573733a20756e61626c6520746f2073656e642076616c75652c207260008201527f6563697069656e74206d61792068617665207265766572746564000000000000602082015250565b7f416464726573733a20696e73756666696369656e742062616c616e6365000000600082015250565b7f4f776e61626c653a2063616c6c6572206973206e6f7420746865206f776e6572600082015250565b50565b610ba181610a28565b8114610bac57600080fd5b50565b610bb881610a3a565b8114610bc357600080fd5b5056fea2646970667358221220dffd0dfa93239e577ae4e59b1c291de08d6c0db885c54b215cd445b6c535181c64736f6c63430008040033",
  "linkReferences": {},
  "deployedLinkReferences": {}
}