{
  "_format": "hh-sol-artifact-1",
  "contractName": "FlamingPhenixClubNFT",
  "sourceName": "contracts/FlamingPhenixClubNFT.sol",
  "abi": [
    {
      "inputs": [
        {
          "internalType": "string",
          "name": "_nftBaseURI",
          "type": "string"
        },
        {
          "internalType": "uint256",
          "name": "_initialTeamReserve",
          "type": "uint256"
        }
      ],
      "stateMutability": "nonpayable",
      "type": "constructor"
    },
    {
      "anonymous": false,
      "inputs": [
        {
          "indexed": true,
          "internalType": "address",
          "name": "owner",
          "type": "address"
        },
        {
          "indexed": true,
          "internalType": "address",
          "name": "approved",
          "type": "address"
        },
        {
          "indexed": true,
          "internalType": "uint256",
          "name": "tokenId",
          "type": "uint256"
        }
      ],
      "name": "Approval",
      "type": "event"
    },
    {
      "anonymous": false,
      "inputs": [
        {
          "indexed": true,
          "internalType": "address",
          "name": "owner",
          "type": "address"
        },
        {
          "indexed": true,
          "internalType": "address",
          "name": "operator",
          "type": "address"
        },
        {
          "indexed": false,
          "internalType": "bool",
          "name": "approved",
          "type": "bool"
        }
      ],
      "name": "ApprovalForAll",
      "type": "event"
    },
    {
      "anonymous": false,
      "inputs": [
        {
          "indexed": true,
          "internalType": "address",
          "name": "previousOwner",
          "type": "address"
        },
        {
          "indexed": true,
          "internalType": "address",
          "name": "newOwner",
          "type": "address"
        }
      ],
      "name": "OwnershipTransferred",
      "type": "event"
    },
    {
      "anonymous": false,
      "inputs": [
        {
          "indexed": true,
          "internalType": "address",
          "name": "from",
          "type": "address"
        },
        {
          "indexed": true,
          "internalType": "address",
          "name": "to",
          "type": "address"
        },
        {
          "indexed": true,
          "internalType": "uint256",
          "name": "tokenId",
          "type": "uint256"
        }
      ],
      "name": "Transfer",
      "type": "event"
    },
    {
      "inputs": [
        {
          "internalType": "address[]",
          "name": "_addresses",
          "type": "address[]"
        }
      ],
      "name": "addWhitelist",
      "outputs": [],
      "stateMutability": "nonpayable",
      "type": "function"
    },
    {
      "inputs": [
        {
          "internalType": "address",
          "name": "to",
          "type": "address"
        },
        {
          "internalType": "uint256",
          "name": "tokenId",
          "type": "uint256"
        }
      ],
      "name": "approve",
      "outputs": [],
      "stateMutability": "nonpayable",
      "type": "function"
    },
    {
      "inputs": [
        {
          "internalType": "address",
          "name": "owner",
          "type": "address"
        }
      ],
      "name": "balanceOf",
      "outputs": [
        {
          "internalType": "uint256",
          "name": "",
          "type": "uint256"
        }
      ],
      "stateMutability": "view",
      "type": "function"
    },
    {
      "inputs": [
        {
          "internalType": "address",
          "name": "_minter",
          "type": "address"
        }
      ],
      "name": "canMint",
      "outputs": [
        {
          "internalType": "uint256",
          "name": "",
          "type": "uint256"
        }
      ],
      "stateMutability": "view",
      "type": "function"
    },
    {
      "inputs": [],
      "name": "canMintWithERC20",
      "outputs": [
        {
          "internalType": "bool",
          "name": "",
          "type": "bool"
        }
      ],
      "stateMutability": "view",
      "type": "function"
    },
    {
      "inputs": [
        {
          "internalType": "uint256",
          "name": "tokenId",
          "type": "uint256"
        }
      ],
      "name": "getApproved",
      "outputs": [
        {
          "internalType": "address",
          "name": "",
          "type": "address"
        }
      ],
      "stateMutability": "view",
      "type": "function"
    },
    {
      "inputs": [],
      "name": "getInfo",
      "outputs": [
        {
          "components": [
            {
              "internalType": "uint256",
              "name": "regularCost",
              "type": "uint256"
            },
            {
              "internalType": "uint256",
              "name": "memberCost",
              "type": "uint256"
            },
            {
              "internalType": "uint256",
              "name": "whitelistCost",
              "type": "uint256"
            },
            {
              "internalType": "uint256",
              "name": "maxSupply",
              "type": "uint256"
            },
            {
              "internalType": "uint256",
              "name": "totalSupply",
              "type": "uint256"
            },
            {
              "internalType": "uint256",
              "name": "maxMintPerAddress",
              "type": "uint256"
            },
            {
              "internalType": "uint256",
              "name": "maxMintPerTx",
              "type": "uint256"
            }
          ],
          "internalType": "struct IDrop.Info",
          "name": "",
          "type": "tuple"
        }
      ],
      "stateMutability": "view",
      "type": "function"
    },
    {
      "inputs": [
        {
          "internalType": "address",
          "name": "owner",
          "type": "address"
        },
        {
          "internalType": "address",
          "name": "operator",
          "type": "address"
        }
      ],
      "name": "isApprovedForAll",
      "outputs": [
        {
          "internalType": "bool",
          "name": "",
          "type": "bool"
        }
      ],
      "stateMutability": "view",
      "type": "function"
    },
    {
      "inputs": [],
      "name": "isRevealed",
      "outputs": [
        {
          "internalType": "bool",
          "name": "",
          "type": "bool"
        }
      ],
      "stateMutability": "view",
      "type": "function"
    },
    {
      "inputs": [
        {
          "internalType": "address",
          "name": "_address",
          "type": "address"
        }
      ],
      "name": "isWhitelisted",
      "outputs": [
        {
          "internalType": "bool",
          "name": "",
          "type": "bool"
        }
      ],
      "stateMutability": "view",
      "type": "function"
    },
    {
      "inputs": [],
      "name": "marketShareFee",
      "outputs": [
        {
          "internalType": "uint256",
          "name": "",
          "type": "uint256"
        }
      ],
      "stateMutability": "view",
      "type": "function"
    },
    {
      "inputs": [],
      "name": "maxSupply",
      "outputs": [
        {
          "internalType": "uint256",
          "name": "",
          "type": "uint256"
        }
      ],
      "stateMutability": "view",
      "type": "function"
    },
    {
      "inputs": [],
      "name": "memberMintCost",
      "outputs": [
        {
          "internalType": "uint256",
          "name": "",
          "type": "uint256"
        }
      ],
      "stateMutability": "view",
      "type": "function"
    },
    {
      "inputs": [
        {
          "internalType": "uint256",
          "name": "_amount",
          "type": "uint256"
        }
      ],
      "name": "mint",
      "outputs": [],
      "stateMutability": "payable",
      "type": "function"
    },
    {
      "inputs": [
        {
          "internalType": "address",
          "name": "_minter",
          "type": "address"
        }
      ],
      "name": "mintCost",
      "outputs": [
        {
          "internalType": "uint256",
          "name": "",
          "type": "uint256"
        }
      ],
      "stateMutability": "view",
      "type": "function"
    },
    {
      "inputs": [],
      "name": "mintEnabled",
      "outputs": [
        {
          "internalType": "bool",
          "name": "",
          "type": "bool"
        }
      ],
      "stateMutability": "view",
      "type": "function"
    },
    {
      "inputs": [
        {
          "internalType": "uint256",
          "name": "_amount",
          "type": "uint256"
        }
      ],
      "name": "mintExternal",
      "outputs": [],
      "stateMutability": "payable",
      "type": "function"
    },
    {
      "inputs": [
        {
          "internalType": "uint256",
          "name": "_amount",
          "type": "uint256"
        }
      ],
      "name": "mintExternalWithERC20Token",
      "outputs": [],
      "stateMutability": "nonpayable",
      "type": "function"
    },
    {
      "inputs": [],
      "name": "name",
      "outputs": [
        {
          "internalType": "string",
          "name": "",
          "type": "string"
        }
      ],
      "stateMutability": "view",
      "type": "function"
    },
    {
      "inputs": [],
      "name": "normalMintCost",
      "outputs": [
        {
          "internalType": "uint256",
          "name": "",
          "type": "uint256"
        }
      ],
      "stateMutability": "view",
      "type": "function"
    },
    {
      "inputs": [
        {
          "internalType": "address",
          "name": "_ownerAddress",
          "type": "address"
        }
      ],
      "name": "ownedNFTIdList",
      "outputs": [
        {
          "internalType": "uint256[]",
          "name": "",
          "type": "uint256[]"
        }
      ],
      "stateMutability": "view",
      "type": "function"
    },
    {
      "inputs": [],
      "name": "owner",
      "outputs": [
        {
          "internalType": "address",
          "name": "",
          "type": "address"
        }
      ],
      "stateMutability": "view",
      "type": "function"
    },
    {
      "inputs": [
        {
          "internalType": "uint256",
          "name": "tokenId",
          "type": "uint256"
        }
      ],
      "name": "ownerOf",
      "outputs": [
        {
          "internalType": "address",
          "name": "",
          "type": "address"
        }
      ],
      "stateMutability": "view",
      "type": "function"
    },
    {
      "inputs": [],
      "name": "payableERC20Token",
      "outputs": [
        {
          "internalType": "address",
          "name": "",
          "type": "address"
        }
      ],
      "stateMutability": "view",
      "type": "function"
    },
    {
      "inputs": [],
      "name": "payableERC20TokenMintCost",
      "outputs": [
        {
          "internalType": "uint256",
          "name": "",
          "type": "uint256"
        }
      ],
      "stateMutability": "view",
      "type": "function"
    },
    {
      "inputs": [
        {
          "internalType": "address",
          "name": "dest",
          "type": "address"
        }
      ],
      "name": "payments",
      "outputs": [
        {
          "internalType": "uint256",
          "name": "",
          "type": "uint256"
        }
      ],
      "stateMutability": "view",
      "type": "function"
    },
    {
      "inputs": [
        {
          "internalType": "address[]",
          "name": "_addresses",
          "type": "address[]"
        }
      ],
      "name": "removeWhitelist",
      "outputs": [],
      "stateMutability": "nonpayable",
      "type": "function"
    },
    {
      "inputs": [],
      "name": "renounceOwnership",
      "outputs": [],
      "stateMutability": "nonpayable",
      "type": "function"
    },
    {
      "inputs": [
        {
          "internalType": "address",
          "name": "from",
          "type": "address"
        },
        {
          "internalType": "address",
          "name": "to",
          "type": "address"
        },
        {
          "internalType": "uint256",
          "name": "tokenId",
          "type": "uint256"
        }
      ],
      "name": "safeTransferFrom",
      "outputs": [],
      "stateMutability": "nonpayable",
      "type": "function"
    },
    {
      "inputs": [
        {
          "internalType": "address",
          "name": "from",
          "type": "address"
        },
        {
          "internalType": "address",
          "name": "to",
          "type": "address"
        },
        {
          "internalType": "uint256",
          "name": "tokenId",
          "type": "uint256"
        },
        {
          "internalType": "bytes",
          "name": "_data",
          "type": "bytes"
        }
      ],
      "name": "safeTransferFrom",
      "outputs": [],
      "stateMutability": "nonpayable",
      "type": "function"
    },
    {
      "inputs": [
        {
          "internalType": "address",
          "name": "operator",
          "type": "address"
        },
        {
          "internalType": "bool",
          "name": "approved",
          "type": "bool"
        }
      ],
      "name": "setApprovalForAll",
      "outputs": [],
      "stateMutability": "nonpayable",
      "type": "function"
    },
    {
      "inputs": [
        {
          "internalType": "bool",
          "name": "_canMintWithERC20",
          "type": "bool"
        }
      ],
      "name": "setCanMintWithERC20",
      "outputs": [],
      "stateMutability": "nonpayable",
      "type": "function"
    },
    {
      "inputs": [
        {
          "internalType": "uint256",
          "name": "_fee",
          "type": "uint256"
        },
        {
          "internalType": "uint256",
          "name": "_denominator",
          "type": "uint256"
        }
      ],
      "name": "setMarketShareFee",
      "outputs": [],
      "stateMutability": "nonpayable",
      "type": "function"
    },
    {
      "inputs": [
        {
          "internalType": "uint256",
          "name": "_normalMintCost",
          "type": "uint256"
        },
        {
          "internalType": "uint256",
          "name": "_memberMintCost",
          "type": "uint256"
        },
        {
          "internalType": "uint256",
          "name": "_whitelistMintCost",
          "type": "uint256"
        },
        {
          "internalType": "uint256",
          "name": "_payableERC20TokenMintCost",
          "type": "uint256"
        }
      ],
      "name": "setMintCosts",
      "outputs": [],
      "stateMutability": "nonpayable",
      "type": "function"
    },
    {
      "inputs": [
        {
          "internalType": "bool",
          "name": "_mintEnabled",
          "type": "bool"
        }
      ],
      "name": "setMintEnabled",
      "outputs": [],
      "stateMutability": "nonpayable",
      "type": "function"
    },
    {
      "inputs": [
        {
          "internalType": "address",
          "name": "_payableERC20Token",
          "type": "address"
        }
      ],
      "name": "setPayableERC20Token",
      "outputs": [],
      "stateMutability": "nonpayable",
      "type": "function"
    },
    {
      "inputs": [],
      "name": "setRevealed",
      "outputs": [],
      "stateMutability": "nonpayable",
      "type": "function"
    },
    {
      "inputs": [
        {
          "internalType": "address",
          "name": "_treasuryAddress",
          "type": "address"
        }
      ],
      "name": "setTreasuryAddress",
      "outputs": [],
      "stateMutability": "nonpayable",
      "type": "function"
    },
    {
      "inputs": [
        {
          "internalType": "bool",
          "name": "_whitelistOnly",
          "type": "bool"
        }
      ],
      "name": "setWhitelistOnly",
      "outputs": [],
      "stateMutability": "nonpayable",
      "type": "function"
    },
    {
      "inputs": [
        {
          "internalType": "bytes4",
          "name": "interfaceId",
          "type": "bytes4"
        }
      ],
      "name": "supportsInterface",
      "outputs": [
        {
          "internalType": "bool",
          "name": "",
          "type": "bool"
        }
      ],
      "stateMutability": "view",
      "type": "function"
    },
    {
      "inputs": [],
      "name": "symbol",
      "outputs": [
        {
          "internalType": "string",
          "name": "",
          "type": "string"
        }
      ],
      "stateMutability": "view",
      "type": "function"
    },
    {
      "inputs": [
        {
          "internalType": "uint256",
          "name": "index",
          "type": "uint256"
        }
      ],
      "name": "tokenByIndex",
      "outputs": [
        {
          "internalType": "uint256",
          "name": "",
          "type": "uint256"
        }
      ],
      "stateMutability": "view",
      "type": "function"
    },
    {
      "inputs": [
        {
          "internalType": "address",
          "name": "owner",
          "type": "address"
        },
        {
          "internalType": "uint256",
          "name": "index",
          "type": "uint256"
        }
      ],
      "name": "tokenOfOwnerByIndex",
      "outputs": [
        {
          "internalType": "uint256",
          "name": "",
          "type": "uint256"
        }
      ],
      "stateMutability": "view",
      "type": "function"
    },
    {
      "inputs": [
        {
          "internalType": "uint256",
          "name": "tokenID",
          "type": "uint256"
        }
      ],
      "name": "tokenURI",
      "outputs": [
        {
          "internalType": "string",
          "name": "",
          "type": "string"
        }
      ],
      "stateMutability": "view",
      "type": "function"
    },
    {
      "inputs": [],
      "name": "totalSupply",
      "outputs": [
        {
          "internalType": "uint256",
          "name": "",
          "type": "uint256"
        }
      ],
      "stateMutability": "view",
      "type": "function"
    },
    {
      "inputs": [
        {
          "internalType": "address",
          "name": "from",
          "type": "address"
        },
        {
          "internalType": "address",
          "name": "to",
          "type": "address"
        },
        {
          "internalType": "uint256",
          "name": "tokenId",
          "type": "uint256"
        }
      ],
      "name": "transferFrom",
      "outputs": [],
      "stateMutability": "nonpayable",
      "type": "function"
    },
    {
      "inputs": [
        {
          "internalType": "address",
          "name": "newOwner",
          "type": "address"
        }
      ],
      "name": "transferOwnership",
      "outputs": [],
      "stateMutability": "nonpayable",
      "type": "function"
    },
    {
      "inputs": [],
      "name": "treasuryAddress",
      "outputs": [
        {
          "internalType": "address",
          "name": "",
          "type": "address"
        }
      ],
      "stateMutability": "view",
      "type": "function"
    },
    {
      "inputs": [
        {
          "internalType": "string",
          "name": "_newURI",
          "type": "string"
        }
      ],
      "name": "updateBaseURI",
      "outputs": [],
      "stateMutability": "nonpayable",
      "type": "function"
    },
    {
      "inputs": [
        {
          "internalType": "address",
          "name": "",
          "type": "address"
        }
      ],
      "name": "whitelist",
      "outputs": [
        {
          "internalType": "bool",
          "name": "",
          "type": "bool"
        }
      ],
      "stateMutability": "view",
      "type": "function"
    },
    {
      "inputs": [],
      "name": "whitelistMintCost",
      "outputs": [
        {
          "internalType": "uint256",
          "name": "",
          "type": "uint256"
        }
      ],
      "stateMutability": "view",
      "type": "function"
    },
    {
      "inputs": [],
      "name": "whitelistOnly",
      "outputs": [
        {
          "internalType": "bool",
          "name": "",
          "type": "bool"
        }
      ],
      "stateMutability": "view",
      "type": "function"
    },
    {
      "inputs": [
        {
          "internalType": "address payable",
          "name": "payee",
          "type": "address"
        }
      ],
      "name": "withdrawPayments",
      "outputs": [],
      "stateMutability": "nonpayable",
      "type": "function"
    }
  ],
  "bytecode": "0x60a06040523480156200001157600080fd5b506040516200833b3803806200833b83398181016040528101906200003791906200114d565b6040518060400160405280601381526020017f466c616d696e67205068656e697820436c7562000000000000000000000000008152506040518060400160405280600381526020017f46504300000000000000000000000000000000000000000000000000000000008152508160009080519060200190620000bb92919062000fc3565b508060019080519060200190620000d492919062000fc3565b505050620000f7620000eb6200035460201b60201c565b6200035c60201b60201c565b604051620001059062001054565b604051809103906000f08015801562000122573d6000803e3d6000fd5b5073ffffffffffffffffffffffffffffffffffffffff1660808173ffffffffffffffffffffffffffffffffffffffff1660601b81525050737a3cdb2364f92369a602cae81167d0679087e6a3601360006101000a81548173ffffffffffffffffffffffffffffffffffffffff021916908373ffffffffffffffffffffffffffffffffffffffff1602179055508160149080519060200190620001c692919062000fc3565b507357d06bb1e3b60c875cd3a4445a53217f9b44d390601160006101000a81548173ffffffffffffffffffffffffffffffffffffffff021916908373ffffffffffffffffffffffffffffffffffffffff16021790555073cf322b554b6cfb668221d5b1979b6e4e58ab4dbc600c60006101000a81548173ffffffffffffffffffffffffffffffffffffffff021916908373ffffffffffffffffffffffffffffffffffffffff160217905550680fb88ef7839f480000600d81905550680e18398e7601900000600e81905550680d02ab486cedc00000600f8190555069010f0cf064dd592000006010819055506064600a620186a0620002c6919062001535565b620002d29190620014fd565b60128190555060008111156200033b5760005b81811015620003395760006001620003026200042260201b60201c565b6200030e9190620014a0565b90506200032233826200042f60201b60201c565b5080806200033090620016dd565b915050620002e5565b505b6200034c336200045560201b60201c565b505062001994565b600033905090565b6000600a60009054906101000a900473ffffffffffffffffffffffffffffffffffffffff16905081600a60006101000a81548173ffffffffffffffffffffffffffffffffffffffff021916908373ffffffffffffffffffffffffffffffffffffffff1602179055508173ffffffffffffffffffffffffffffffffffffffff168173ffffffffffffffffffffffffffffffffffffffff167f8be0079c531659141344cd1fd0a4f28419497f9722a3daafe3b4186f6b6457e060405160405180910390a35050565b6000600880549050905090565b620004518282604051806020016040528060008152506200056b60201b60201c565b5050565b620004656200035460201b60201c565b73ffffffffffffffffffffffffffffffffffffffff166200048b620005d960201b60201c565b73ffffffffffffffffffffffffffffffffffffffff1614620004e4576040517f08c379a0000000000000000000000000000000000000000000000000000000008152600401620004db90620013f2565b60405180910390fd5b600073ffffffffffffffffffffffffffffffffffffffff168173ffffffffffffffffffffffffffffffffffffffff16141562000557576040517f08c379a00000000000000000000000000000000000000000000000000000000081526004016200054e906200136a565b60405180910390fd5b62000568816200035c60201b60201c565b50565b6200057d83836200060360201b60201c565b620005926000848484620007e960201b60201c565b620005d4576040517f08c379a0000000000000000000000000000000000000000000000000000000008152600401620005cb9062001348565b60405180910390fd5b505050565b6000600a60009054906101000a900473ffffffffffffffffffffffffffffffffffffffff16905090565b600073ffffffffffffffffffffffffffffffffffffffff168273ffffffffffffffffffffffffffffffffffffffff16141562000676576040517f08c379a00000000000000000000000000000000000000000000000000000000081526004016200066d90620013d0565b60405180910390fd5b6200068781620009a360201b60201c565b15620006ca576040517f08c379a0000000000000000000000000000000000000000000000000000000008152600401620006c1906200138c565b60405180910390fd5b620006de6000838362000a0f60201b60201c565b6001600360008473ffffffffffffffffffffffffffffffffffffffff1673ffffffffffffffffffffffffffffffffffffffff1681526020019081526020016000206000828254620007309190620014a0565b92505081905550816002600083815260200190815260200160002060006101000a81548173ffffffffffffffffffffffffffffffffffffffff021916908373ffffffffffffffffffffffffffffffffffffffff160217905550808273ffffffffffffffffffffffffffffffffffffffff16600073ffffffffffffffffffffffffffffffffffffffff167fddf252ad1be2c89b69c2b068fc378daa952ba7f163c4a11628f55a4df523b3ef60405160405180910390a45050565b6000620008178473ffffffffffffffffffffffffffffffffffffffff1662000b5660201b62002a0b1760201c565b1562000996578373ffffffffffffffffffffffffffffffffffffffff1663150b7a02620008496200035460201b60201c565b8786866040518563ffffffff1660e01b81526004016200086d9493929190620012f4565b602060405180830381600087803b1580156200088857600080fd5b505af1925050508015620008bc57506040513d601f19601f82011682018060405250810190620008b9919062001121565b60015b62000945573d8060008114620008ef576040519150601f19603f3d011682016040523d82523d6000602084013e620008f4565b606091505b506000815114156200093d576040517f08c379a0000000000000000000000000000000000000000000000000000000008152600401620009349062001348565b60405180910390fd5b805181602001fd5b63150b7a0260e01b7bffffffffffffffffffffffffffffffffffffffffffffffffffffffff1916817bffffffffffffffffffffffffffffffffffffffffffffffffffffffff1916149150506200099b565b600190505b949350505050565b60008073ffffffffffffffffffffffffffffffffffffffff166002600084815260200190815260200160002060009054906101000a900473ffffffffffffffffffffffffffffffffffffffff1673ffffffffffffffffffffffffffffffffffffffff1614159050919050565b62000a2783838362000b6960201b62002a1e1760201c565b600073ffffffffffffffffffffffffffffffffffffffff168373ffffffffffffffffffffffffffffffffffffffff16141562000a745762000a6e8162000b6e60201b60201c565b62000abc565b8173ffffffffffffffffffffffffffffffffffffffff168373ffffffffffffffffffffffffffffffffffffffff161462000abb5762000aba838262000bb760201b60201c565b5b5b600073ffffffffffffffffffffffffffffffffffffffff168273ffffffffffffffffffffffffffffffffffffffff16141562000b095762000b038162000d3460201b60201c565b62000b51565b8273ffffffffffffffffffffffffffffffffffffffff168273ffffffffffffffffffffffffffffffffffffffff161462000b505762000b4f828262000e7c60201b60201c565b5b5b505050565b600080823b905060008111915050919050565b505050565b6008805490506009600083815260200190815260200160002081905550600881908060018154018082558091505060019003906000526020600020016000909190919091505550565b6000600162000bd18462000f0860201b62001b8f1760201c565b62000bdd919062001596565b905060006007600084815260200190815260200160002054905081811462000cc3576000600660008673ffffffffffffffffffffffffffffffffffffffff1673ffffffffffffffffffffffffffffffffffffffff168152602001908152602001600020600084815260200190815260200160002054905080600660008773ffffffffffffffffffffffffffffffffffffffff1673ffffffffffffffffffffffffffffffffffffffff168152602001908152602001600020600084815260200190815260200160002081905550816007600083815260200190815260200160002081905550505b6007600084815260200190815260200160002060009055600660008573ffffffffffffffffffffffffffffffffffffffff1673ffffffffffffffffffffffffffffffffffffffff16815260200190815260200160002060008381526020019081526020016000206000905550505050565b6000600160088054905062000d4a919062001596565b905060006009600084815260200190815260200160002054905060006008838154811062000da1577f4e487b7100000000000000000000000000000000000000000000000000000000600052603260045260246000fd5b90600052602060002001549050806008838154811062000dea577f4e487b7100000000000000000000000000000000000000000000000000000000600052603260045260246000fd5b90600052602060002001819055508160096000838152602001908152602001600020819055506009600085815260200190815260200160002060009055600880548062000e60577f4e487b7100000000000000000000000000000000000000000000000000000000600052603160045260246000fd5b6001900381819060005260206000200160009055905550505050565b600062000e948362000f0860201b62001b8f1760201c565b905081600660008573ffffffffffffffffffffffffffffffffffffffff1673ffffffffffffffffffffffffffffffffffffffff168152602001908152602001600020600083815260200190815260200160002081905550806007600084815260200190815260200160002081905550505050565b60008073ffffffffffffffffffffffffffffffffffffffff168273ffffffffffffffffffffffffffffffffffffffff16141562000f7c576040517f08c379a000000000000000000000000000000000000000000000000000000000815260040162000f7390620013ae565b60405180910390fd5b600360008373ffffffffffffffffffffffffffffffffffffffff1673ffffffffffffffffffffffffffffffffffffffff168152602001908152602001600020549050919050565b82805462000fd19062001671565b90600052602060002090601f01602090048101928262000ff5576000855562001041565b82601f106200101057805160ff191683800117855562001041565b8280016001018555821562001041579182015b828111156200104057825182559160200191906001019062001023565b5b50905062001050919062001062565b5090565b610d09806200763283390190565b5b808211156200107d57600081600090555060010162001063565b5090565b60006200109862001092846200143d565b62001414565b905082815260208101848484011115620010b157600080fd5b620010be8482856200163b565b509392505050565b600081519050620010d78162001960565b92915050565b600082601f830112620010ef57600080fd5b81516200110184826020860162001081565b91505092915050565b6000815190506200111b816200197a565b92915050565b6000602082840312156200113457600080fd5b60006200114484828501620010c6565b91505092915050565b600080604083850312156200116157600080fd5b600083015167ffffffffffffffff8111156200117c57600080fd5b6200118a85828601620010dd565b92505060206200119d858286016200110a565b9150509250929050565b620011b281620015d1565b82525050565b6000620011c58262001473565b620011d181856200147e565b9350620011e38185602086016200163b565b620011ee81620017e7565b840191505092915050565b6000620012086032836200148f565b91506200121582620017f8565b604082019050919050565b60006200122f6026836200148f565b91506200123c8262001847565b604082019050919050565b600062001256601c836200148f565b9150620012638262001896565b602082019050919050565b60006200127d602a836200148f565b91506200128a82620018bf565b604082019050919050565b6000620012a46020836200148f565b9150620012b1826200190e565b602082019050919050565b6000620012cb6020836200148f565b9150620012d88262001937565b602082019050919050565b620012ee8162001631565b82525050565b60006080820190506200130b6000830187620011a7565b6200131a6020830186620011a7565b620013296040830185620012e3565b81810360608301526200133d8184620011b8565b905095945050505050565b600060208201905081810360008301526200136381620011f9565b9050919050565b60006020820190508181036000830152620013858162001220565b9050919050565b60006020820190508181036000830152620013a78162001247565b9050919050565b60006020820190508181036000830152620013c9816200126e565b9050919050565b60006020820190508181036000830152620013eb8162001295565b9050919050565b600060208201905081810360008301526200140d81620012bc565b9050919050565b60006200142062001433565b90506200142e8282620016a7565b919050565b6000604051905090565b600067ffffffffffffffff8211156200145b576200145a620017b8565b5b6200146682620017e7565b9050602081019050919050565b600081519050919050565b600082825260208201905092915050565b600082825260208201905092915050565b6000620014ad8262001631565b9150620014ba8362001631565b9250827fffffffffffffffffffffffffffffffffffffffffffffffffffffffffffffffff03821115620014f257620014f16200172b565b5b828201905092915050565b60006200150a8262001631565b9150620015178362001631565b9250826200152a57620015296200175a565b5b828204905092915050565b6000620015428262001631565b91506200154f8362001631565b9250817fffffffffffffffffffffffffffffffffffffffffffffffffffffffffffffffff04831182151516156200158b576200158a6200172b565b5b828202905092915050565b6000620015a38262001631565b9150620015b08362001631565b925082821015620015c657620015c56200172b565b5b828203905092915050565b6000620015de8262001611565b9050919050565b60007fffffffff0000000000000000000000000000000000000000000000000000000082169050919050565b600073ffffffffffffffffffffffffffffffffffffffff82169050919050565b6000819050919050565b60005b838110156200165b5780820151818401526020810190506200163e565b838111156200166b576000848401525b50505050565b600060028204905060018216806200168a57607f821691505b60208210811415620016a157620016a062001789565b5b50919050565b620016b282620017e7565b810181811067ffffffffffffffff82111715620016d457620016d3620017b8565b5b80604052505050565b6000620016ea8262001631565b91507fffffffffffffffffffffffffffffffffffffffffffffffffffffffffffffffff82141562001720576200171f6200172b565b5b600182019050919050565b7f4e487b7100000000000000000000000000000000000000000000000000000000600052601160045260246000fd5b7f4e487b7100000000000000000000000000000000000000000000000000000000600052601260045260246000fd5b7f4e487b7100000000000000000000000000000000000000000000000000000000600052602260045260246000fd5b7f4e487b7100000000000000000000000000000000000000000000000000000000600052604160045260246000fd5b6000601f19601f8301169050919050565b7f4552433732313a207472616e7366657220746f206e6f6e20455243373231526560008201527f63656976657220696d706c656d656e7465720000000000000000000000000000602082015250565b7f4f776e61626c653a206e6577206f776e657220697320746865207a65726f206160008201527f6464726573730000000000000000000000000000000000000000000000000000602082015250565b7f4552433732313a20746f6b656e20616c7265616479206d696e74656400000000600082015250565b7f4552433732313a2062616c616e636520717565727920666f7220746865207a6560008201527f726f206164647265737300000000000000000000000000000000000000000000602082015250565b7f4552433732313a206d696e7420746f20746865207a65726f2061646472657373600082015250565b7f4f776e61626c653a2063616c6c6572206973206e6f7420746865206f776e6572600082015250565b6200196b81620015e5565b81146200197757600080fd5b50565b620019858162001631565b81146200199157600080fd5b50565b60805160601c615c71620019c1600039600081816115be0152818161241a01526131470152615c716000f3fe60806040526004361061031a5760003560e01c80636a795732116101ab578063b88d4fde116100f7578063e985e9c511610095578063f2fde38b1161006f578063f2fde38b14610bf4578063f30e60e314610c1d578063f46a04eb14610c46578063f53a0b1d14610c6f5761031a565b8063e985e9c514610b65578063ea05a8c614610ba2578063edac985b14610bcb5761031a565b8063c87b56dd116100d1578063c87b56dd14610a95578063d123973014610ad2578063d5abeb0114610afd578063e2982c2114610b285761031a565b8063b88d4fde14610a04578063c2ba474414610a2d578063c5f956af14610a6a5761031a565b806395d89b4111610164578063a0712d681161013e578063a0712d6814610969578063a22cb46514610985578063b0d356e5146109ae578063b12dab6e146109d95761031a565b806395d89b41146108d857806399f7e45f146109035780639b19251a1461092c5761031a565b80636a795732146107c857806370a08231146107f3578063715018a614610830578063839ad1d3146108475780638da5cb5b14610884578063931688cb146108af5761031a565b806331b3eb941161026a5780634b4687b5116102235780635a9b0b89116101fd5780635a9b0b891461071b5780636352211e1461074657806363be7533146107835780636605bfda1461079f5761031a565b80634b4687b5146106885780634f6ccce7146106b357806354214f69146106f05761031a565b806331b3eb941461058c5780633af32abf146105b55780633b71275d146105f25780633bd649681461061d578063413fa8e31461063457806342842e0e1461065f5761031a565b806318160ddd116102d7578063288d9faf116102b1578063288d9faf146104be5780632acc659e146104e95780632f745c59146105265780633096b9e8146105635761031a565b806318160ddd14610441578063232452161461046c57806323b872dd146104955761031a565b806301ffc9a71461031f57806306fdde031461035c578063081812fc14610387578063095ea7b3146103c45780630fa4e43e146103ed57806312e179e914610416575b600080fd5b34801561032b57600080fd5b5061034660048036038101906103419190614509565b610c98565b6040516103539190614da1565b60405180910390f35b34801561036857600080fd5b50610371610d12565b60405161037e9190614dbc565b60405180910390f35b34801561039357600080fd5b506103ae60048036038101906103a9919061459c565b610da4565b6040516103bb9190614cc6565b60405180910390f35b3480156103d057600080fd5b506103eb60048036038101906103e69190614436565b610e29565b005b3480156103f957600080fd5b50610414600480360381019061040f919061459c565b610f41565b005b34801561042257600080fd5b5061042b61124e565b60405161043891906150f9565b60405180910390f35b34801561044d57600080fd5b50610456611254565b60405161046391906150f9565b60405180910390f35b34801561047857600080fd5b50610493600480360381019061048e9190614472565b611261565b005b3480156104a157600080fd5b506104bc60048036038101906104b79190614330565b6113a8565b005b3480156104ca57600080fd5b506104d3611408565b6040516104e091906150f9565b60405180910390f35b3480156104f557600080fd5b50610510600480360381019061050b91906142a2565b61140e565b60405161051d91906150f9565b60405180910390f35b34801561053257600080fd5b5061054d60048036038101906105489190614436565b61147e565b60405161055a91906150f9565b60405180910390f35b34801561056f57600080fd5b5061058a600480360381019061058591906144b7565b611523565b005b34801561059857600080fd5b506105b360048036038101906105ae91906142cb565b6115bc565b005b3480156105c157600080fd5b506105dc60048036038101906105d791906142a2565b61164a565b6040516105e99190614da1565b60405180910390f35b3480156105fe57600080fd5b50610607611752565b6040516106149190614da1565b60405180910390f35b34801561062957600080fd5b50610632611765565b005b34801561064057600080fd5b506106496117fe565b60405161065691906150f9565b60405180910390f35b34801561066b57600080fd5b5061068660048036038101906106819190614330565b611804565b005b34801561069457600080fd5b5061069d611824565b6040516106aa9190614da1565b60405180910390f35b3480156106bf57600080fd5b506106da60048036038101906106d5919061459c565b611837565b6040516106e791906150f9565b60405180910390f35b3480156106fc57600080fd5b506107056118ce565b6040516107129190614da1565b60405180910390f35b34801561072757600080fd5b506107306118e1565b60405161073d91906150de565b60405180910390f35b34801561075257600080fd5b5061076d6004803603810190610768919061459c565b611932565b60405161077a9190614cc6565b60405180910390f35b61079d6004803603810190610798919061459c565b6119e4565b005b3480156107ab57600080fd5b506107c660048036038101906107c191906142a2565b611ac9565b005b3480156107d457600080fd5b506107dd611b89565b6040516107ea91906150f9565b60405180910390f35b3480156107ff57600080fd5b5061081a600480360381019061081591906142a2565b611b8f565b60405161082791906150f9565b60405180910390f35b34801561083c57600080fd5b50610845611c47565b005b34801561085357600080fd5b5061086e600480360381019061086991906142a2565b611cc5565b60405161087b9190614d7f565b60405180910390f35b34801561089057600080fd5b50610899611dc5565b6040516108a69190614cc6565b60405180910390f35b3480156108bb57600080fd5b506108d660048036038101906108d1919061455b565b611def565b005b3480156108e457600080fd5b506108ed611e85565b6040516108fa9190614dbc565b60405180910390f35b34801561090f57600080fd5b5061092a600480360381019061092591906142a2565b611f17565b005b34801561093857600080fd5b50610953600480360381019061094e91906142a2565b611fd7565b6040516109609190614da1565b60405180910390f35b610983600480360381019061097e919061459c565b611ff7565b005b34801561099157600080fd5b506109ac60048036038101906109a791906143fa565b612234565b005b3480156109ba57600080fd5b506109c361224a565b6040516109d09190614cc6565b60405180910390f35b3480156109e557600080fd5b506109ee612270565b6040516109fb91906150f9565b60405180910390f35b348015610a1057600080fd5b50610a2b6004803603810190610a26919061437f565b612276565b005b348015610a3957600080fd5b50610a546004803603810190610a4f91906142a2565b6122d8565b604051610a6191906150f9565b60405180910390f35b348015610a7657600080fd5b50610a7f61235e565b604051610a8c9190614cc6565b60405180910390f35b348015610aa157600080fd5b50610abc6004803603810190610ab7919061459c565b612384565b604051610ac99190614dbc565b60405180910390f35b348015610ade57600080fd5b50610ae76123f9565b604051610af49190614da1565b60405180910390f35b348015610b0957600080fd5b50610b1261240c565b604051610b1f91906150f9565b60405180910390f35b348015610b3457600080fd5b50610b4f6004803603810190610b4a91906142a2565b612416565b604051610b5c91906150f9565b60405180910390f35b348015610b7157600080fd5b50610b8c6004803603810190610b8791906142f4565b6124c8565b604051610b999190614da1565b60405180910390f35b348015610bae57600080fd5b50610bc96004803603810190610bc491906144b7565b61255c565b005b348015610bd757600080fd5b50610bf26004803603810190610bed9190614472565b6125f5565b005b348015610c0057600080fd5b50610c1b6004803603810190610c1691906142a2565b61273c565b005b348015610c2957600080fd5b50610c446004803603810190610c3f91906145ee565b612834565b005b348015610c5257600080fd5b50610c6d6004803603810190610c6891906144b7565b6128d4565b005b348015610c7b57600080fd5b50610c966004803603810190610c91919061462a565b61296d565b005b60007f780e9d63000000000000000000000000000000000000000000000000000000007bffffffffffffffffffffffffffffffffffffffffffffffffffffffff1916827bffffffffffffffffffffffffffffffffffffffffffffffffffffffff19161480610d0b5750610d0a82612a23565b5b9050919050565b606060008054610d2190615409565b80601f0160208091040260200160405190810160405280929190818152602001828054610d4d90615409565b8015610d9a5780601f10610d6f57610100808354040283529160200191610d9a565b820191906000526020600020905b815481529060010190602001808311610d7d57829003601f168201915b5050505050905090565b6000610daf82612b05565b610dee576040517f08c379a0000000000000000000000000000000000000000000000000000000008152600401610de590614f5e565b60405180910390fd5b6004600083815260200190815260200160002060009054906101000a900473ffffffffffffffffffffffffffffffffffffffff169050919050565b6000610e3482611932565b90508073ffffffffffffffffffffffffffffffffffffffff168373ffffffffffffffffffffffffffffffffffffffff161415610ea5576040517f08c379a0000000000000000000000000000000000000000000000000000000008152600401610e9c9061501e565b60405180910390fd5b8073ffffffffffffffffffffffffffffffffffffffff16610ec4612b71565b73ffffffffffffffffffffffffffffffffffffffff161480610ef35750610ef281610eed612b71565b6124c8565b5b610f32576040517f08c379a0000000000000000000000000000000000000000000000000000000008152600401610f2990614ebe565b60405180910390fd5b610f3c8383612b79565b505050565b601560009054906101000a900460ff16610f90576040517f08c379a0000000000000000000000000000000000000000000000000000000008152600401610f8790614ffe565b60405180910390fd5b601560019054906101000a900460ff1615610fee57610fae3361164a565b610fed576040517f08c379a0000000000000000000000000000000000000000000000000000000008152600401610fe49061509e565b60405180910390fd5b5b60011515601560029054906101000a900460ff16151514611044576040517f08c379a000000000000000000000000000000000000000000000000000000000815260040161103b90614fde565b60405180910390fd5b600a811115611088576040517f08c379a000000000000000000000000000000000000000000000000000000000815260040161107f9061505e565b60405180910390fd5b600081116110cb576040517f08c379a00000000000000000000000000000000000000000000000000000000081526004016110c29061505e565b60405180910390fd5b611a0a816110d7611254565b6110e1919061522c565b1115611122576040517f08c379a000000000000000000000000000000000000000000000000000000000815260040161111990614f1e565b60405180910390fd5b60008160105461113291906152b3565b9050601160009054906101000a900473ffffffffffffffffffffffffffffffffffffffff1673ffffffffffffffffffffffffffffffffffffffff166323b872dd33600c60009054906101000a900473ffffffffffffffffffffffffffffffffffffffff16846040518463ffffffff1660e01b81526004016111b593929190614cfc565b602060405180830381600087803b1580156111cf57600080fd5b505af11580156111e3573d6000803e3d6000fd5b505050506040513d601f19601f8201168201806040525081019061120791906144e0565b5060005b82811015611249576000600161121f611254565b611229919061522c565b90506112353382612c32565b5080806112419061546c565b91505061120b565b505050565b60125481565b6000600880549050905090565b611269612b71565b73ffffffffffffffffffffffffffffffffffffffff16611287611dc5565b73ffffffffffffffffffffffffffffffffffffffff16146112dd576040517f08c379a00000000000000000000000000000000000000000000000000000000081526004016112d490614f7e565b60405180910390fd5b60005b828290508110156113a3576000600b600085858581811061132a577f4e487b7100000000000000000000000000000000000000000000000000000000600052603260045260246000fd5b905060200201602081019061133f91906142a2565b73ffffffffffffffffffffffffffffffffffffffff1673ffffffffffffffffffffffffffffffffffffffff16815260200190815260200160002060006101000a81548160ff021916908315150217905550808061139b9061546c565b9150506112e0565b505050565b6113b96113b3612b71565b82612c50565b6113f8576040517f08c379a00000000000000000000000000000000000000000000000000000000081526004016113ef9061503e565b60405180910390fd5b611403838383612d2e565b505050565b600e5481565b600080600d54905060011515600b60008573ffffffffffffffffffffffffffffffffffffffff1673ffffffffffffffffffffffffffffffffffffffff16815260200190815260200160002060009054906101000a900460ff161515141561147557600f5490505b80915050919050565b600061148983611b8f565b82106114ca576040517f08c379a00000000000000000000000000000000000000000000000000000000081526004016114c190614dde565b60405180910390fd5b600660008473ffffffffffffffffffffffffffffffffffffffff1673ffffffffffffffffffffffffffffffffffffffff168152602001908152602001600020600083815260200190815260200160002054905092915050565b61152b612b71565b73ffffffffffffffffffffffffffffffffffffffff16611549611dc5565b73ffffffffffffffffffffffffffffffffffffffff161461159f576040517f08c379a000000000000000000000000000000000000000000000000000000000815260040161159690614f7e565b60405180910390fd5b80601560026101000a81548160ff02191690831515021790555050565b7f000000000000000000000000000000000000000000000000000000000000000073ffffffffffffffffffffffffffffffffffffffff166351cff8d9826040518263ffffffff1660e01b81526004016116159190614ce1565b600060405180830381600087803b15801561162f57600080fd5b505af1158015611643573d6000803e3d6000fd5b5050505050565b6000600b60008373ffffffffffffffffffffffffffffffffffffffff1673ffffffffffffffffffffffffffffffffffffffff16815260200190815260200160002060009054906101000a900460ff168061174b5750601360009054906101000a900473ffffffffffffffffffffffffffffffffffffffff1673ffffffffffffffffffffffffffffffffffffffff1663a230c524836040518263ffffffff1660e01b81526004016116fa9190614cc6565b60206040518083038186803b15801561171257600080fd5b505afa158015611726573d6000803e3d6000fd5b505050506040513d601f19601f8201168201806040525081019061174a91906144e0565b5b9050919050565b601560029054906101000a900460ff1681565b61176d612b71565b73ffffffffffffffffffffffffffffffffffffffff1661178b611dc5565b73ffffffffffffffffffffffffffffffffffffffff16146117e1576040517f08c379a00000000000000000000000000000000000000000000000000000000081526004016117d890614f7e565b60405180910390fd5b6001601560036101000a81548160ff021916908315150217905550565b60105481565b61181f83838360405180602001604052806000815250612276565b505050565b601560019054906101000a900460ff1681565b6000611841611254565b8210611882576040517f08c379a00000000000000000000000000000000000000000000000000000000081526004016118799061507e565b60405180910390fd5b600882815481106118bc577f4e487b7100000000000000000000000000000000000000000000000000000000600052603260045260246000fd5b90600052602060002001549050919050565b601560039054906101000a900460ff1681565b6118e9614000565b6040518060e00160405280600d548152602001600e548152602001600f548152602001611a0a815260200161191c611254565b815260200160008152602001600a815250905090565b6000806002600084815260200190815260200160002060009054906101000a900473ffffffffffffffffffffffffffffffffffffffff169050600073ffffffffffffffffffffffffffffffffffffffff168173ffffffffffffffffffffffffffffffffffffffff1614156119db576040517f08c379a00000000000000000000000000000000000000000000000000000000081526004016119d290614efe565b60405180910390fd5b80915050919050565b601560009054906101000a900460ff16611a33576040517f08c379a0000000000000000000000000000000000000000000000000000000008152600401611a2a90614ffe565b60405180910390fd5b601560019054906101000a900460ff1615611a9157611a513361164a565b611a90576040517f08c379a0000000000000000000000000000000000000000000000000000000008152600401611a879061509e565b60405180910390fd5b5b611a9a81612f8a565b611ac6600c60009054906101000a900473ffffffffffffffffffffffffffffffffffffffff1634613145565b50565b611ad1612b71565b73ffffffffffffffffffffffffffffffffffffffff16611aef611dc5565b73ffffffffffffffffffffffffffffffffffffffff1614611b45576040517f08c379a0000000000000000000000000000000000000000000000000000000008152600401611b3c90614f7e565b60405180910390fd5b80600c60006101000a81548173ffffffffffffffffffffffffffffffffffffffff021916908373ffffffffffffffffffffffffffffffffffffffff16021790555050565b600d5481565b60008073ffffffffffffffffffffffffffffffffffffffff168273ffffffffffffffffffffffffffffffffffffffff161415611c00576040517f08c379a0000000000000000000000000000000000000000000000000000000008152600401611bf790614ede565b60405180910390fd5b600360008373ffffffffffffffffffffffffffffffffffffffff1673ffffffffffffffffffffffffffffffffffffffff168152602001908152602001600020549050919050565b611c4f612b71565b73ffffffffffffffffffffffffffffffffffffffff16611c6d611dc5565b73ffffffffffffffffffffffffffffffffffffffff1614611cc3576040517f08c379a0000000000000000000000000000000000000000000000000000000008152600401611cba90614f7e565b60405180910390fd5b565b60606000611cd283611b8f565b905060008167ffffffffffffffff811115611d16577f4e487b7100000000000000000000000000000000000000000000000000000000600052604160045260246000fd5b604051908082528060200260200182016040528015611d445781602001602082028036833780820191505090505b50905060005b82811015611dba576000611d5e868361147e565b905080838381518110611d9a577f4e487b7100000000000000000000000000000000000000000000000000000000600052603260045260246000fd5b602002602001018181525050508080611db29061546c565b915050611d4a565b508092505050919050565b6000600a60009054906101000a900473ffffffffffffffffffffffffffffffffffffffff16905090565b611df7612b71565b73ffffffffffffffffffffffffffffffffffffffff16611e15611dc5565b73ffffffffffffffffffffffffffffffffffffffff1614611e6b576040517f08c379a0000000000000000000000000000000000000000000000000000000008152600401611e6290614f7e565b60405180910390fd5b8060149080519060200190611e8192919061403d565b5050565b606060018054611e9490615409565b80601f0160208091040260200160405190810160405280929190818152602001828054611ec090615409565b8015611f0d5780601f10611ee257610100808354040283529160200191611f0d565b820191906000526020600020905b815481529060010190602001808311611ef057829003601f168201915b5050505050905090565b611f1f612b71565b73ffffffffffffffffffffffffffffffffffffffff16611f3d611dc5565b73ffffffffffffffffffffffffffffffffffffffff1614611f93576040517f08c379a0000000000000000000000000000000000000000000000000000000008152600401611f8a90614f7e565b60405180910390fd5b80601160006101000a81548173ffffffffffffffffffffffffffffffffffffffff021916908373ffffffffffffffffffffffffffffffffffffffff16021790555050565b600b6020528060005260406000206000915054906101000a900460ff1681565b601560009054906101000a900460ff16612046576040517f08c379a000000000000000000000000000000000000000000000000000000000815260040161203d90614ffe565b60405180910390fd5b601560019054906101000a900460ff16156120a4576120643361164a565b6120a3576040517f08c379a000000000000000000000000000000000000000000000000000000000815260040161209a9061509e565b60405180910390fd5b5b6120ad81612f8a565b6000620186a0601254346120c191906152b3565b6120cb9190615282565b9050600081346120db919061530d565b9050601360009054906101000a900473ffffffffffffffffffffffffffffffffffffffff1673ffffffffffffffffffffffffffffffffffffffff16634065da638373454cfaa623a629cc0b4017aeb85d54c42e91479d6040518363ffffffff1660e01b815260040161214d9190614cc6565b6000604051808303818588803b15801561216657600080fd5b505af115801561217a573d6000803e3d6000fd5b5050505050601360009054906101000a900473ffffffffffffffffffffffffffffffffffffffff1673ffffffffffffffffffffffffffffffffffffffff16634065da6382600c60009054906101000a900473ffffffffffffffffffffffffffffffffffffffff166040518363ffffffff1660e01b81526004016121fd9190614cc6565b6000604051808303818588803b15801561221657600080fd5b505af115801561222a573d6000803e3d6000fd5b5050505050505050565b61224661223f612b71565b83836131d5565b5050565b601160009054906101000a900473ffffffffffffffffffffffffffffffffffffffff1681565b600f5481565b612287612281612b71565b83612c50565b6122c6576040517f08c379a00000000000000000000000000000000000000000000000000000000081526004016122bd9061503e565b60405180910390fd5b6122d284848484613342565b50505050565b6000801515601560009054906101000a900460ff16151514156122fe5760009050612359565b60011515601560019054906101000a900460ff16151514801561232d5750600015156123298361164a565b1515145b1561233b5760009050612359565b611a0a612346611254565b106123545760009050612359565b600a90505b919050565b600c60009054906101000a900473ffffffffffffffffffffffffffffffffffffffff1681565b606060011515601560039054906101000a900460ff161515146123c95760146040516020016123b39190614ca4565b60405160208183030381529060405290506123f4565b6123d28261339e565b6040516020016123e29190614c69565b60405160208183030381529060405290505b919050565b601560009054906101000a900460ff1681565b6000611a0a905090565b60007f000000000000000000000000000000000000000000000000000000000000000073ffffffffffffffffffffffffffffffffffffffff1663e3a9db1a836040518263ffffffff1660e01b81526004016124719190614cc6565b60206040518083038186803b15801561248957600080fd5b505afa15801561249d573d6000803e3d6000fd5b505050506040513d601f19601f820116820180604052508101906124c191906145c5565b9050919050565b6000600560008473ffffffffffffffffffffffffffffffffffffffff1673ffffffffffffffffffffffffffffffffffffffff16815260200190815260200160002060008373ffffffffffffffffffffffffffffffffffffffff1673ffffffffffffffffffffffffffffffffffffffff16815260200190815260200160002060009054906101000a900460ff16905092915050565b612564612b71565b73ffffffffffffffffffffffffffffffffffffffff16612582611dc5565b73ffffffffffffffffffffffffffffffffffffffff16146125d8576040517f08c379a00000000000000000000000000000000000000000000000000000000081526004016125cf90614f7e565b60405180910390fd5b80601560016101000a81548160ff02191690831515021790555050565b6125fd612b71565b73ffffffffffffffffffffffffffffffffffffffff1661261b611dc5565b73ffffffffffffffffffffffffffffffffffffffff1614612671576040517f08c379a000000000000000000000000000000000000000000000000000000000815260040161266890614f7e565b60405180910390fd5b60005b82829050811015612737576001600b60008585858181106126be577f4e487b7100000000000000000000000000000000000000000000000000000000600052603260045260246000fd5b90506020020160208101906126d391906142a2565b73ffffffffffffffffffffffffffffffffffffffff1673ffffffffffffffffffffffffffffffffffffffff16815260200190815260200160002060006101000a81548160ff021916908315150217905550808061272f9061546c565b915050612674565b505050565b612744612b71565b73ffffffffffffffffffffffffffffffffffffffff16612762611dc5565b73ffffffffffffffffffffffffffffffffffffffff16146127b8576040517f08c379a00000000000000000000000000000000000000000000000000000000081526004016127af90614f7e565b60405180910390fd5b600073ffffffffffffffffffffffffffffffffffffffff168173ffffffffffffffffffffffffffffffffffffffff161415612828576040517f08c379a000000000000000000000000000000000000000000000000000000000815260040161281f90614e1e565b60405180910390fd5b61283181613445565b50565b61283c612b71565b73ffffffffffffffffffffffffffffffffffffffff1661285a611dc5565b73ffffffffffffffffffffffffffffffffffffffff16146128b0576040517f08c379a00000000000000000000000000000000000000000000000000000000081526004016128a790614f7e565b60405180910390fd5b8082620186a06128c091906152b3565b6128ca9190615282565b6012819055505050565b6128dc612b71565b73ffffffffffffffffffffffffffffffffffffffff166128fa611dc5565b73ffffffffffffffffffffffffffffffffffffffff1614612950576040517f08c379a000000000000000000000000000000000000000000000000000000000815260040161294790614f7e565b60405180910390fd5b80601560006101000a81548160ff02191690831515021790555050565b612975612b71565b73ffffffffffffffffffffffffffffffffffffffff16612993611dc5565b73ffffffffffffffffffffffffffffffffffffffff16146129e9576040517f08c379a00000000000000000000000000000000000000000000000000000000081526004016129e090614f7e565b60405180910390fd5b83600d8190555082600e8190555081600f819055508060108190555050505050565b600080823b905060008111915050919050565b505050565b60007f80ac58cd000000000000000000000000000000000000000000000000000000007bffffffffffffffffffffffffffffffffffffffffffffffffffffffff1916827bffffffffffffffffffffffffffffffffffffffffffffffffffffffff19161480612aee57507f5b5e139f000000000000000000000000000000000000000000000000000000007bffffffffffffffffffffffffffffffffffffffffffffffffffffffff1916827bffffffffffffffffffffffffffffffffffffffffffffffffffffffff1916145b80612afe5750612afd8261350b565b5b9050919050565b60008073ffffffffffffffffffffffffffffffffffffffff166002600084815260200190815260200160002060009054906101000a900473ffffffffffffffffffffffffffffffffffffffff1673ffffffffffffffffffffffffffffffffffffffff1614159050919050565b600033905090565b816004600083815260200190815260200160002060006101000a81548173ffffffffffffffffffffffffffffffffffffffff021916908373ffffffffffffffffffffffffffffffffffffffff160217905550808273ffffffffffffffffffffffffffffffffffffffff16612bec83611932565b73ffffffffffffffffffffffffffffffffffffffff167f8c5be1e5ebec7d5bd14f71427d1e84f3dd0314c0f7b2291e5b200ac8c7c3b92560405160405180910390a45050565b612c4c828260405180602001604052806000815250613575565b5050565b6000612c5b82612b05565b612c9a576040517f08c379a0000000000000000000000000000000000000000000000000000000008152600401612c9190614e9e565b60405180910390fd5b6000612ca583611932565b90508073ffffffffffffffffffffffffffffffffffffffff168473ffffffffffffffffffffffffffffffffffffffff161480612d1457508373ffffffffffffffffffffffffffffffffffffffff16612cfc84610da4565b73ffffffffffffffffffffffffffffffffffffffff16145b80612d255750612d2481856124c8565b5b91505092915050565b8273ffffffffffffffffffffffffffffffffffffffff16612d4e82611932565b73ffffffffffffffffffffffffffffffffffffffff1614612da4576040517f08c379a0000000000000000000000000000000000000000000000000000000008152600401612d9b90614f9e565b60405180910390fd5b600073ffffffffffffffffffffffffffffffffffffffff168273ffffffffffffffffffffffffffffffffffffffff161415612e14576040517f08c379a0000000000000000000000000000000000000000000000000000000008152600401612e0b90614e5e565b60405180910390fd5b612e1f8383836135d0565b612e2a600082612b79565b6001600360008573ffffffffffffffffffffffffffffffffffffffff1673ffffffffffffffffffffffffffffffffffffffff1681526020019081526020016000206000828254612e7a919061530d565b925050819055506001600360008473ffffffffffffffffffffffffffffffffffffffff1673ffffffffffffffffffffffffffffffffffffffff1681526020019081526020016000206000828254612ed1919061522c565b92505081905550816002600083815260200190815260200160002060006101000a81548173ffffffffffffffffffffffffffffffffffffffff021916908373ffffffffffffffffffffffffffffffffffffffff160217905550808273ffffffffffffffffffffffffffffffffffffffff168473ffffffffffffffffffffffffffffffffffffffff167fddf252ad1be2c89b69c2b068fc378daa952ba7f163c4a11628f55a4df523b3ef60405160405180910390a4505050565b600a811115612fce576040517f08c379a0000000000000000000000000000000000000000000000000000000008152600401612fc59061505e565b60405180910390fd5b60008111613011576040517f08c379a00000000000000000000000000000000000000000000000000000000081526004016130089061505e565b60405180910390fd5b611a0a8161301d611254565b613027919061522c565b1115613068576040517f08c379a000000000000000000000000000000000000000000000000000000000815260040161305f90614f1e565b60405180910390fd5b6000816130743361140e565b61307e91906152b3565b9050348114806130c05750613091611dc5565b73ffffffffffffffffffffffffffffffffffffffff163373ffffffffffffffffffffffffffffffffffffffff16145b6130ff576040517f08c379a00000000000000000000000000000000000000000000000000000000081526004016130f6906150be565b60405180910390fd5b60005b828110156131405760006001613116611254565b613120919061522c565b905061312c3382612c32565b5080806131389061546c565b915050613102565b505050565b7f000000000000000000000000000000000000000000000000000000000000000073ffffffffffffffffffffffffffffffffffffffff1663f340fa0182846040518363ffffffff1660e01b815260040161319f9190614cc6565b6000604051808303818588803b1580156131b857600080fd5b505af11580156131cc573d6000803e3d6000fd5b50505050505050565b8173ffffffffffffffffffffffffffffffffffffffff168373ffffffffffffffffffffffffffffffffffffffff161415613244576040517f08c379a000000000000000000000000000000000000000000000000000000000815260040161323b90614e7e565b60405180910390fd5b80600560008573ffffffffffffffffffffffffffffffffffffffff1673ffffffffffffffffffffffffffffffffffffffff16815260200190815260200160002060008473ffffffffffffffffffffffffffffffffffffffff1673ffffffffffffffffffffffffffffffffffffffff16815260200190815260200160002060006101000a81548160ff0219169083151502179055508173ffffffffffffffffffffffffffffffffffffffff168373ffffffffffffffffffffffffffffffffffffffff167f17307eab39ab6107e8899845ad3d59bd9653f200f220920489ca2b5937696c31836040516133359190614da1565b60405180910390a3505050565b61334d848484612d2e565b613359848484846136e4565b613398576040517f08c379a000000000000000000000000000000000000000000000000000000000815260040161338f90614dfe565b60405180910390fd5b50505050565b60606133a982612b05565b6133e8576040517f08c379a00000000000000000000000000000000000000000000000000000000081526004016133df90614fbe565b60405180910390fd5b60006133f261387b565b90506000815111613412576040518060200160405280600081525061343d565b8061341c8461390d565b60405160200161342d929190614c80565b6040516020818303038152906040525b915050919050565b6000600a60009054906101000a900473ffffffffffffffffffffffffffffffffffffffff16905081600a60006101000a81548173ffffffffffffffffffffffffffffffffffffffff021916908373ffffffffffffffffffffffffffffffffffffffff1602179055508173ffffffffffffffffffffffffffffffffffffffff168173ffffffffffffffffffffffffffffffffffffffff167f8be0079c531659141344cd1fd0a4f28419497f9722a3daafe3b4186f6b6457e060405160405180910390a35050565b60007f01ffc9a7000000000000000000000000000000000000000000000000000000007bffffffffffffffffffffffffffffffffffffffffffffffffffffffff1916827bffffffffffffffffffffffffffffffffffffffffffffffffffffffff1916149050919050565b61357f8383613aba565b61358c60008484846136e4565b6135cb576040517f08c379a00000000000000000000000000000000000000000000000000000000081526004016135c290614dfe565b60405180910390fd5b505050565b6135db838383612a1e565b600073ffffffffffffffffffffffffffffffffffffffff168373ffffffffffffffffffffffffffffffffffffffff16141561361e5761361981613c88565b61365d565b8173ffffffffffffffffffffffffffffffffffffffff168373ffffffffffffffffffffffffffffffffffffffff161461365c5761365b8382613cd1565b5b5b600073ffffffffffffffffffffffffffffffffffffffff168273ffffffffffffffffffffffffffffffffffffffff1614156136a05761369b81613e3e565b6136df565b8273ffffffffffffffffffffffffffffffffffffffff168273ffffffffffffffffffffffffffffffffffffffff16146136de576136dd8282613f81565b5b5b505050565b60006137058473ffffffffffffffffffffffffffffffffffffffff16612a0b565b1561386e578373ffffffffffffffffffffffffffffffffffffffff1663150b7a0261372e612b71565b8786866040518563ffffffff1660e01b81526004016137509493929190614d33565b602060405180830381600087803b15801561376a57600080fd5b505af192505050801561379b57506040513d601f19601f820116820180604052508101906137989190614532565b60015b61381e573d80600081146137cb576040519150601f19603f3d011682016040523d82523d6000602084013e6137d0565b606091505b50600081511415613816576040517f08c379a000000000000000000000000000000000000000000000000000000000815260040161380d90614dfe565b60405180910390fd5b805181602001fd5b63150b7a0260e01b7bffffffffffffffffffffffffffffffffffffffffffffffffffffffff1916817bffffffffffffffffffffffffffffffffffffffffffffffffffffffff191614915050613873565b600190505b949350505050565b60606014805461388a90615409565b80601f01602080910402602001604051908101604052809291908181526020018280546138b690615409565b80156139035780601f106138d857610100808354040283529160200191613903565b820191906000526020600020905b8154815290600101906020018083116138e657829003601f168201915b5050505050905090565b60606000821415613955576040518060400160405280600181526020017f30000000000000000000000000000000000000000000000000000000000000008152509050613ab5565b600082905060005b600082146139875780806139709061546c565b915050600a826139809190615282565b915061395d565b60008167ffffffffffffffff8111156139c9577f4e487b7100000000000000000000000000000000000000000000000000000000600052604160045260246000fd5b6040519080825280601f01601f1916602001820160405280156139fb5781602001600182028036833780820191505090505b5090505b60008514613aae57600182613a14919061530d565b9150600a85613a2391906154b5565b6030613a2f919061522c565b60f81b818381518110613a6b577f4e487b7100000000000000000000000000000000000000000000000000000000600052603260045260246000fd5b60200101907effffffffffffffffffffffffffffffffffffffffffffffffffffffffffffff1916908160001a905350600a85613aa79190615282565b94506139ff565b8093505050505b919050565b600073ffffffffffffffffffffffffffffffffffffffff168273ffffffffffffffffffffffffffffffffffffffff161415613b2a576040517f08c379a0000000000000000000000000000000000000000000000000000000008152600401613b2190614f3e565b60405180910390fd5b613b3381612b05565b15613b73576040517f08c379a0000000000000000000000000000000000000000000000000000000008152600401613b6a90614e3e565b60405180910390fd5b613b7f600083836135d0565b6001600360008473ffffffffffffffffffffffffffffffffffffffff1673ffffffffffffffffffffffffffffffffffffffff1681526020019081526020016000206000828254613bcf919061522c565b92505081905550816002600083815260200190815260200160002060006101000a81548173ffffffffffffffffffffffffffffffffffffffff021916908373ffffffffffffffffffffffffffffffffffffffff160217905550808273ffffffffffffffffffffffffffffffffffffffff16600073ffffffffffffffffffffffffffffffffffffffff167fddf252ad1be2c89b69c2b068fc378daa952ba7f163c4a11628f55a4df523b3ef60405160405180910390a45050565b6008805490506009600083815260200190815260200160002081905550600881908060018154018082558091505060019003906000526020600020016000909190919091505550565b60006001613cde84611b8f565b613ce8919061530d565b9050600060076000848152602001908152602001600020549050818114613dcd576000600660008673ffffffffffffffffffffffffffffffffffffffff1673ffffffffffffffffffffffffffffffffffffffff168152602001908152602001600020600084815260200190815260200160002054905080600660008773ffffffffffffffffffffffffffffffffffffffff1673ffffffffffffffffffffffffffffffffffffffff168152602001908152602001600020600084815260200190815260200160002081905550816007600083815260200190815260200160002081905550505b6007600084815260200190815260200160002060009055600660008573ffffffffffffffffffffffffffffffffffffffff1673ffffffffffffffffffffffffffffffffffffffff16815260200190815260200160002060008381526020019081526020016000206000905550505050565b60006001600880549050613e52919061530d565b9050600060096000848152602001908152602001600020549050600060088381548110613ea8577f4e487b7100000000000000000000000000000000000000000000000000000000600052603260045260246000fd5b906000526020600020015490508060088381548110613ef0577f4e487b7100000000000000000000000000000000000000000000000000000000600052603260045260246000fd5b906000526020600020018190555081600960008381526020019081526020016000208190555060096000858152602001908152602001600020600090556008805480613f65577f4e487b7100000000000000000000000000000000000000000000000000000000600052603160045260246000fd5b6001900381819060005260206000200160009055905550505050565b6000613f8c83611b8f565b905081600660008573ffffffffffffffffffffffffffffffffffffffff1673ffffffffffffffffffffffffffffffffffffffff168152602001908152602001600020600083815260200190815260200160002081905550806007600084815260200190815260200160002081905550505050565b6040518060e00160405280600081526020016000815260200160008152602001600081526020016000815260200160008152602001600081525090565b82805461404990615409565b90600052602060002090601f01602090048101928261406b57600085556140b2565b82601f1061408457805160ff19168380011785556140b2565b828001600101855582156140b2579182015b828111156140b1578251825591602001919060010190614096565b5b5090506140bf91906140c3565b5090565b5b808211156140dc5760008160009055506001016140c4565b5090565b60006140f36140ee84615139565b615114565b90508281526020810184848401111561410b57600080fd5b6141168482856153c7565b509392505050565b600061413161412c8461516a565b615114565b90508281526020810184848401111561414957600080fd5b6141548482856153c7565b509392505050565b60008135905061416b81615bc8565b92915050565b60008135905061418081615bdf565b92915050565b60008083601f84011261419857600080fd5b8235905067ffffffffffffffff8111156141b157600080fd5b6020830191508360208202830111156141c957600080fd5b9250929050565b6000813590506141df81615bf6565b92915050565b6000815190506141f481615bf6565b92915050565b60008135905061420981615c0d565b92915050565b60008151905061421e81615c0d565b92915050565b600082601f83011261423557600080fd5b81356142458482602086016140e0565b91505092915050565b600082601f83011261425f57600080fd5b813561426f84826020860161411e565b91505092915050565b60008135905061428781615c24565b92915050565b60008151905061429c81615c24565b92915050565b6000602082840312156142b457600080fd5b60006142c28482850161415c565b91505092915050565b6000602082840312156142dd57600080fd5b60006142eb84828501614171565b91505092915050565b6000806040838503121561430757600080fd5b60006143158582860161415c565b92505060206143268582860161415c565b9150509250929050565b60008060006060848603121561434557600080fd5b60006143538682870161415c565b93505060206143648682870161415c565b925050604061437586828701614278565b9150509250925092565b6000806000806080858703121561439557600080fd5b60006143a38782880161415c565b94505060206143b48782880161415c565b93505060406143c587828801614278565b925050606085013567ffffffffffffffff8111156143e257600080fd5b6143ee87828801614224565b91505092959194509250565b6000806040838503121561440d57600080fd5b600061441b8582860161415c565b925050602061442c858286016141d0565b9150509250929050565b6000806040838503121561444957600080fd5b60006144578582860161415c565b925050602061446885828601614278565b9150509250929050565b6000806020838503121561448557600080fd5b600083013567ffffffffffffffff81111561449f57600080fd5b6144ab85828601614186565b92509250509250929050565b6000602082840312156144c957600080fd5b60006144d7848285016141d0565b91505092915050565b6000602082840312156144f257600080fd5b6000614500848285016141e5565b91505092915050565b60006020828403121561451b57600080fd5b6000614529848285016141fa565b91505092915050565b60006020828403121561454457600080fd5b60006145528482850161420f565b91505092915050565b60006020828403121561456d57600080fd5b600082013567ffffffffffffffff81111561458757600080fd5b6145938482850161424e565b91505092915050565b6000602082840312156145ae57600080fd5b60006145bc84828501614278565b91505092915050565b6000602082840312156145d757600080fd5b60006145e58482850161428d565b91505092915050565b6000806040838503121561460157600080fd5b600061460f85828601614278565b925050602061462085828601614278565b9150509250929050565b6000806000806080858703121561464057600080fd5b600061464e87828801614278565b945050602061465f87828801614278565b935050604061467087828801614278565b925050606061468187828801614278565b91505092959194509250565b60006146998383614c4b565b60208301905092915050565b6146ae81615353565b82525050565b6146bd81615341565b82525050565b60006146ce826151c0565b6146d881856151ee565b93506146e38361519b565b8060005b838110156147145781516146fb888261468d565b9750614706836151e1565b9250506001810190506146e7565b5085935050505092915050565b61472a81615365565b82525050565b600061473b826151cb565b61474581856151ff565b93506147558185602086016153d6565b61475e816155a2565b840191505092915050565b6000614774826151d6565b61477e8185615210565b935061478e8185602086016153d6565b614797816155a2565b840191505092915050565b60006147ad826151d6565b6147b78185615221565b93506147c78185602086016153d6565b80840191505092915050565b600081546147e081615409565b6147ea8186615221565b94506001821660008114614805576001811461481657614849565b60ff19831686528186019350614849565b61481f856151ab565b60005b8381101561484157815481890152600182019150602081019050614822565b838801955050505b50505092915050565b600061485f602b83615210565b915061486a826155b3565b604082019050919050565b6000614882603283615210565b915061488d82615602565b604082019050919050565b60006148a5602683615210565b91506148b082615651565b604082019050919050565b60006148c8601c83615210565b91506148d3826156a0565b602082019050919050565b60006148eb602483615210565b91506148f6826156c9565b604082019050919050565b600061490e601983615210565b915061491982615718565b602082019050919050565b6000614931602c83615210565b915061493c82615741565b604082019050919050565b6000614954603883615210565b915061495f82615790565b604082019050919050565b6000614977602a83615210565b9150614982826157df565b604082019050919050565b600061499a602983615210565b91506149a58261582e565b604082019050919050565b60006149bd601883615210565b91506149c88261587d565b602082019050919050565b60006149e0602083615210565b91506149eb826158a6565b602082019050919050565b6000614a03602c83615210565b9150614a0e826158cf565b604082019050919050565b6000614a26602083615210565b9150614a318261591e565b602082019050919050565b6000614a49602983615210565b9150614a5482615947565b604082019050919050565b6000614a6c602f83615210565b9150614a7782615996565b604082019050919050565b6000614a8f601f83615210565b9150614a9a826159e5565b602082019050919050565b6000614ab2600b83615221565b9150614abd82615a0e565b600b82019050919050565b6000614ad5600d83615210565b9150614ae082615a37565b602082019050919050565b6000614af8602183615210565b9150614b0382615a60565b604082019050919050565b6000614b1b603183615210565b9150614b2682615aaf565b604082019050919050565b6000614b3e601383615210565b9150614b4982615afe565b602082019050919050565b6000614b61602c83615210565b9150614b6c82615b27565b604082019050919050565b6000614b84600f83615210565b9150614b8f82615b76565b602082019050919050565b6000614ba7601183615210565b9150614bb282615b9f565b602082019050919050565b60e082016000820151614bd36000850182614c4b565b506020820151614be66020850182614c4b565b506040820151614bf96040850182614c4b565b506060820151614c0c6060850182614c4b565b506080820151614c1f6080850182614c4b565b5060a0820151614c3260a0850182614c4b565b5060c0820151614c4560c0850182614c4b565b50505050565b614c54816153bd565b82525050565b614c63816153bd565b82525050565b6000614c7582846147a2565b915081905092915050565b6000614c8c82856147a2565b9150614c9882846147a2565b91508190509392505050565b6000614cb082846147d3565b9150614cbb82614aa5565b915081905092915050565b6000602082019050614cdb60008301846146b4565b92915050565b6000602082019050614cf660008301846146a5565b92915050565b6000606082019050614d1160008301866146b4565b614d1e60208301856146b4565b614d2b6040830184614c5a565b949350505050565b6000608082019050614d4860008301876146b4565b614d5560208301866146b4565b614d626040830185614c5a565b8181036060830152614d748184614730565b905095945050505050565b60006020820190508181036000830152614d9981846146c3565b905092915050565b6000602082019050614db66000830184614721565b92915050565b60006020820190508181036000830152614dd68184614769565b905092915050565b60006020820190508181036000830152614df781614852565b9050919050565b60006020820190508181036000830152614e1781614875565b9050919050565b60006020820190508181036000830152614e3781614898565b9050919050565b60006020820190508181036000830152614e57816148bb565b9050919050565b60006020820190508181036000830152614e77816148de565b9050919050565b60006020820190508181036000830152614e9781614901565b9050919050565b60006020820190508181036000830152614eb781614924565b9050919050565b60006020820190508181036000830152614ed781614947565b9050919050565b60006020820190508181036000830152614ef78161496a565b9050919050565b60006020820190508181036000830152614f178161498d565b9050919050565b60006020820190508181036000830152614f37816149b0565b9050919050565b60006020820190508181036000830152614f57816149d3565b9050919050565b60006020820190508181036000830152614f77816149f6565b9050919050565b60006020820190508181036000830152614f9781614a19565b9050919050565b60006020820190508181036000830152614fb781614a3c565b9050919050565b60006020820190508181036000830152614fd781614a5f565b9050919050565b60006020820190508181036000830152614ff781614a82565b9050919050565b6000602082019050818103600083015261501781614ac8565b9050919050565b6000602082019050818103600083015261503781614aeb565b9050919050565b6000602082019050818103600083015261505781614b0e565b9050919050565b6000602082019050818103600083015261507781614b31565b9050919050565b6000602082019050818103600083015261509781614b54565b9050919050565b600060208201905081810360008301526150b781614b77565b9050919050565b600060208201905081810360008301526150d781614b9a565b9050919050565b600060e0820190506150f36000830184614bbd565b92915050565b600060208201905061510e6000830184614c5a565b92915050565b600061511e61512f565b905061512a828261543b565b919050565b6000604051905090565b600067ffffffffffffffff82111561515457615153615573565b5b61515d826155a2565b9050602081019050919050565b600067ffffffffffffffff82111561518557615184615573565b5b61518e826155a2565b9050602081019050919050565b6000819050602082019050919050565b60008190508160005260206000209050919050565b600081519050919050565b600081519050919050565b600081519050919050565b6000602082019050919050565b600082825260208201905092915050565b600082825260208201905092915050565b600082825260208201905092915050565b600081905092915050565b6000615237826153bd565b9150615242836153bd565b9250827fffffffffffffffffffffffffffffffffffffffffffffffffffffffffffffffff03821115615277576152766154e6565b5b828201905092915050565b600061528d826153bd565b9150615298836153bd565b9250826152a8576152a7615515565b5b828204905092915050565b60006152be826153bd565b91506152c9836153bd565b9250817fffffffffffffffffffffffffffffffffffffffffffffffffffffffffffffffff0483118215151615615302576153016154e6565b5b828202905092915050565b6000615318826153bd565b9150615323836153bd565b925082821015615336576153356154e6565b5b828203905092915050565b600061534c8261539d565b9050919050565b600061535e8261539d565b9050919050565b60008115159050919050565b60007fffffffff0000000000000000000000000000000000000000000000000000000082169050919050565b600073ffffffffffffffffffffffffffffffffffffffff82169050919050565b6000819050919050565b82818337600083830152505050565b60005b838110156153f45780820151818401526020810190506153d9565b83811115615403576000848401525b50505050565b6000600282049050600182168061542157607f821691505b6020821081141561543557615434615544565b5b50919050565b615444826155a2565b810181811067ffffffffffffffff8211171561546357615462615573565b5b80604052505050565b6000615477826153bd565b91507fffffffffffffffffffffffffffffffffffffffffffffffffffffffffffffffff8214156154aa576154a96154e6565b5b600182019050919050565b60006154c0826153bd565b91506154cb836153bd565b9250826154db576154da615515565b5b828206905092915050565b7f4e487b7100000000000000000000000000000000000000000000000000000000600052601160045260246000fd5b7f4e487b7100000000000000000000000000000000000000000000000000000000600052601260045260246000fd5b7f4e487b7100000000000000000000000000000000000000000000000000000000600052602260045260246000fd5b7f4e487b7100000000000000000000000000000000000000000000000000000000600052604160045260246000fd5b6000601f19601f8301169050919050565b7f455243373231456e756d657261626c653a206f776e657220696e646578206f7560008201527f74206f6620626f756e6473000000000000000000000000000000000000000000602082015250565b7f4552433732313a207472616e7366657220746f206e6f6e20455243373231526560008201527f63656976657220696d706c656d656e7465720000000000000000000000000000602082015250565b7f4f776e61626c653a206e6577206f776e657220697320746865207a65726f206160008201527f6464726573730000000000000000000000000000000000000000000000000000602082015250565b7f4552433732313a20746f6b656e20616c7265616479206d696e74656400000000600082015250565b7f4552433732313a207472616e7366657220746f20746865207a65726f2061646460008201527f7265737300000000000000000000000000000000000000000000000000000000602082015250565b7f4552433732313a20617070726f766520746f2063616c6c657200000000000000600082015250565b7f4552433732313a206f70657261746f7220717565727920666f72206e6f6e657860008201527f697374656e7420746f6b656e0000000000000000000000000000000000000000602082015250565b7f4552433732313a20617070726f76652063616c6c6572206973206e6f74206f7760008201527f6e6572206e6f7220617070726f76656420666f7220616c6c0000000000000000602082015250565b7f4552433732313a2062616c616e636520717565727920666f7220746865207a6560008201527f726f206164647265737300000000000000000000000000000000000000000000602082015250565b7f4552433732313a206f776e657220717565727920666f72206e6f6e657869737460008201527f656e7420746f6b656e0000000000000000000000000000000000000000000000602082015250565b7f457863656564696e67204d6178204d696e7420436f756e740000000000000000600082015250565b7f4552433732313a206d696e7420746f20746865207a65726f2061646472657373600082015250565b7f4552433732313a20617070726f76656420717565727920666f72206e6f6e657860008201527f697374656e7420746f6b656e0000000000000000000000000000000000000000602082015250565b7f4f776e61626c653a2063616c6c6572206973206e6f7420746865206f776e6572600082015250565b7f4552433732313a207472616e73666572206f6620746f6b656e2074686174206960008201527f73206e6f74206f776e0000000000000000000000000000000000000000000000602082015250565b7f4552433732314d657461646174613a2055524920717565727920666f72206e6f60008201527f6e6578697374656e7420746f6b656e0000000000000000000000000000000000602082015250565b7f455243323020546f6b656e204d696e74696e672069732064697361626c656400600082015250565b7f6e6f7452657665616c6564000000000000000000000000000000000000000000600082015250565b7f4d696e742044697361626c656400000000000000000000000000000000000000600082015250565b7f4552433732313a20617070726f76616c20746f2063757272656e74206f776e6560008201527f7200000000000000000000000000000000000000000000000000000000000000602082015250565b7f4552433732313a207472616e736665722063616c6c6572206973206e6f74206f60008201527f776e6572206e6f7220617070726f766564000000000000000000000000000000602082015250565b7f496e76616c6964206d696e7420616d6f756e7400000000000000000000000000600082015250565b7f455243373231456e756d657261626c653a20676c6f62616c20696e646578206f60008201527f7574206f6620626f756e64730000000000000000000000000000000000000000602082015250565b7f4e6f742057686974656c69737465640000000000000000000000000000000000600082015250565b7f496e636f7272656374205061796d656e74000000000000000000000000000000600082015250565b615bd181615341565b8114615bdc57600080fd5b50565b615be881615353565b8114615bf357600080fd5b50565b615bff81615365565b8114615c0a57600080fd5b50565b615c1681615371565b8114615c2157600080fd5b50565b615c2d816153bd565b8114615c3857600080fd5b5056fea264697066735822122047d58194b16966392a19a876a397e045464d1c5e9b16fd36381b18b09bb9ed3264736f6c63430008040033608060405234801561001057600080fd5b5061002d61002261003260201b60201c565b61003a60201b60201c565b6100fe565b600033905090565b60008060009054906101000a900473ffffffffffffffffffffffffffffffffffffffff169050816000806101000a81548173ffffffffffffffffffffffffffffffffffffffff021916908373ffffffffffffffffffffffffffffffffffffffff1602179055508173ffffffffffffffffffffffffffffffffffffffff168173ffffffffffffffffffffffffffffffffffffffff167f8be0079c531659141344cd1fd0a4f28419497f9722a3daafe3b4186f6b6457e060405160405180910390a35050565b610bfc8061010d6000396000f3fe6080604052600436106100555760003560e01c806351cff8d91461005a578063715018a6146100835780638da5cb5b1461009a578063e3a9db1a146100c5578063f2fde38b14610102578063f340fa011461012b575b600080fd5b34801561006657600080fd5b50610081600480360381019061007c91906107f5565b610147565b005b34801561008f57600080fd5b506100986102c7565b005b3480156100a657600080fd5b506100af61034f565b6040516100bc9190610900565b60405180910390f35b3480156100d157600080fd5b506100ec60048036038101906100e791906107cc565b610378565b6040516100f9919061099b565b60405180910390f35b34801561010e57600080fd5b50610129600480360381019061012491906107cc565b6103c1565b005b610145600480360381019061014091906107cc565b6104b9565b005b61014f6105e2565b73ffffffffffffffffffffffffffffffffffffffff1661016d61034f565b73ffffffffffffffffffffffffffffffffffffffff16146101c3576040517f08c379a00000000000000000000000000000000000000000000000000000000081526004016101ba9061097b565b60405180910390fd5b6000600160008373ffffffffffffffffffffffffffffffffffffffff1673ffffffffffffffffffffffffffffffffffffffff1681526020019081526020016000205490506000600160008473ffffffffffffffffffffffffffffffffffffffff1673ffffffffffffffffffffffffffffffffffffffff16815260200190815260200160002081905550610275818373ffffffffffffffffffffffffffffffffffffffff166105ea90919063ffffffff16565b8173ffffffffffffffffffffffffffffffffffffffff167f7084f5476618d8e60b11ef0d7d3f06914655adb8793e28ff7f018d4c76d505d5826040516102bb919061099b565b60405180910390a25050565b6102cf6105e2565b73ffffffffffffffffffffffffffffffffffffffff166102ed61034f565b73ffffffffffffffffffffffffffffffffffffffff1614610343576040517f08c379a000000000000000000000000000000000000000000000000000000000815260040161033a9061097b565b60405180910390fd5b61034d60006106de565b565b60008060009054906101000a900473ffffffffffffffffffffffffffffffffffffffff16905090565b6000600160008373ffffffffffffffffffffffffffffffffffffffff1673ffffffffffffffffffffffffffffffffffffffff168152602001908152602001600020549050919050565b6103c96105e2565b73ffffffffffffffffffffffffffffffffffffffff166103e761034f565b73ffffffffffffffffffffffffffffffffffffffff161461043d576040517f08c379a00000000000000000000000000000000000000000000000000000000081526004016104349061097b565b60405180910390fd5b600073ffffffffffffffffffffffffffffffffffffffff168173ffffffffffffffffffffffffffffffffffffffff1614156104ad576040517f08c379a00000000000000000000000000000000000000000000000000000000081526004016104a49061091b565b60405180910390fd5b6104b6816106de565b50565b6104c16105e2565b73ffffffffffffffffffffffffffffffffffffffff166104df61034f565b73ffffffffffffffffffffffffffffffffffffffff1614610535576040517f08c379a000000000000000000000000000000000000000000000000000000000815260040161052c9061097b565b60405180910390fd5b600034905080600160008473ffffffffffffffffffffffffffffffffffffffff1673ffffffffffffffffffffffffffffffffffffffff168152602001908152602001600020600082825461058991906109d2565b925050819055508173ffffffffffffffffffffffffffffffffffffffff167f2da466a7b24304f47e87fa2e1e5a81b9831ce54fec19055ce277ca2f39ba42c4826040516105d6919061099b565b60405180910390a25050565b600033905090565b8047101561062d576040517f08c379a00000000000000000000000000000000000000000000000000000000081526004016106249061095b565b60405180910390fd5b60008273ffffffffffffffffffffffffffffffffffffffff1682604051610653906108eb565b60006040518083038185875af1925050503d8060008114610690576040519150601f19603f3d011682016040523d82523d6000602084013e610695565b606091505b50509050806106d9576040517f08c379a00000000000000000000000000000000000000000000000000000000081526004016106d09061093b565b60405180910390fd5b505050565b60008060009054906101000a900473ffffffffffffffffffffffffffffffffffffffff169050816000806101000a81548173ffffffffffffffffffffffffffffffffffffffff021916908373ffffffffffffffffffffffffffffffffffffffff1602179055508173ffffffffffffffffffffffffffffffffffffffff168173ffffffffffffffffffffffffffffffffffffffff167f8be0079c531659141344cd1fd0a4f28419497f9722a3daafe3b4186f6b6457e060405160405180910390a35050565b6000813590506107b181610b98565b92915050565b6000813590506107c681610baf565b92915050565b6000602082840312156107de57600080fd5b60006107ec848285016107a2565b91505092915050565b60006020828403121561080757600080fd5b6000610815848285016107b7565b91505092915050565b61082781610a28565b82525050565b600061083a6026836109c1565b915061084582610aa5565b604082019050919050565b600061085d603a836109c1565b915061086882610af4565b604082019050919050565b6000610880601d836109c1565b915061088b82610b43565b602082019050919050565b60006108a36020836109c1565b91506108ae82610b6c565b602082019050919050565b60006108c66000836109b6565b91506108d182610b95565b600082019050919050565b6108e581610a6c565b82525050565b60006108f6826108b9565b9150819050919050565b6000602082019050610915600083018461081e565b92915050565b600060208201905081810360008301526109348161082d565b9050919050565b6000602082019050818103600083015261095481610850565b9050919050565b6000602082019050818103600083015261097481610873565b9050919050565b6000602082019050818103600083015261099481610896565b9050919050565b60006020820190506109b060008301846108dc565b92915050565b600081905092915050565b600082825260208201905092915050565b60006109dd82610a6c565b91506109e883610a6c565b9250827fffffffffffffffffffffffffffffffffffffffffffffffffffffffffffffffff03821115610a1d57610a1c610a76565b5b828201905092915050565b6000610a3382610a4c565b9050919050565b6000610a4582610a4c565b9050919050565b600073ffffffffffffffffffffffffffffffffffffffff82169050919050565b6000819050919050565b7f4e487b7100000000000000000000000000000000000000000000000000000000600052601160045260246000fd5b7f4f776e61626c653a206e6577206f776e657220697320746865207a65726f206160008201527f6464726573730000000000000000000000000000000000000000000000000000602082015250565b7f416464726573733a20756e61626c6520746f2073656e642076616c75652c207260008201527f6563697069656e74206d61792068617665207265766572746564000000000000602082015250565b7f416464726573733a20696e73756666696369656e742062616c616e6365000000600082015250565b7f4f776e61626c653a2063616c6c6572206973206e6f7420746865206f776e6572600082015250565b50565b610ba181610a28565b8114610bac57600080fd5b50565b610bb881610a3a565b8114610bc357600080fd5b5056fea2646970667358221220a2c070d22381ad1a489ecdc1bd7d2c7034f62296ad21273bd17862500a0920bf64736f6c63430008040033",
  "linkReferences": {},
  "deployedLinkReferences": {}
}